{
	"data": {
		"bytecode": {
			"linkReferences": {},
			"object": "6080604052348015600e575f5ffd5b50610d598061001c5f395ff3fe608060405234801561000f575f5ffd5b5060043610610034575f3560e01c8063aef18bf714610038578063ff32441814610068575b5f5ffd5b610052600480360381019061004d9190610664565b610084565b60405161005f91906106a9565b60405180910390f35b610082600480360381019061007d9190610785565b6100a0565b005b5f602052805f5260405f205f915054906101000a900460ff1681565b864211156100e3576040517f08c379a00000000000000000000000000000000000000000000000000000000081526004016100da906108cc565b60405180910390fd5b5f8b8b8b8b8b306040516020016100ff9695949392919061094f565b6040516020818303038152906040528051906020012090505f61012c61012483610387565b8686866103b6565b90508c73ffffffffffffffffffffffffffffffffffffffff168173ffffffffffffffffffffffffffffffffffffffff161461019c576040517f08c379a000000000000000000000000000000000000000000000000000000000815260040161019390610a08565b60405180910390fd5b5f5f8381526020019081526020015f205f9054906101000a900460ff16156101f9576040517f08c379a00000000000000000000000000000000000000000000000000000000081526004016101f090610a70565b60405180910390fd5b60015f5f8481526020019081526020015f205f6101000a81548160ff0219169083151502179055508a73ffffffffffffffffffffffffffffffffffffffff1663d505accf8e308d8d8d8d8d6040518863ffffffff1660e01b81526004016102669796959493929190610aca565b5f604051808303815f87803b15801561027d575f5ffd5b505af115801561028f573d5f5f3e3d5ffd5b505050508a73ffffffffffffffffffffffffffffffffffffffff166323b872dd8e8e8d6040518463ffffffff1660e01b81526004016102d093929190610b37565b6020604051808303815f875af11580156102ec573d5f5f3e3d5ffd5b505050506040513d601f19601f820116820180604052508101906103109190610b96565b508b73ffffffffffffffffffffffffffffffffffffffff168d73ffffffffffffffffffffffffffffffffffffffff167fa4195c37c2947bbe89165f03e320b6903116f0b10d8cfdb522330f7ce6f9fa248d8d604051610370929190610bc1565b60405180910390a350505050505050505050505050565b5f816040516020016103999190610c5c565b604051602081830303815290604052805190602001209050919050565b5f5f5f5f6103c6888888886103e4565b9250925092506103d682826104cb565b829350505050949350505050565b5f5f5f7f7fffffffffffffffffffffffffffffff5d576e7357a4501ddfe92f46681b20a0845f1c1115610420575f6003859250925092506104c1565b5f6001888888886040515f81526020016040526040516104439493929190610c81565b6020604051602081039080840390855afa158015610463573d5f5f3e3d5ffd5b5050506020604051035190505f73ffffffffffffffffffffffffffffffffffffffff168173ffffffffffffffffffffffffffffffffffffffff16036104b4575f60015f5f1b935093509350506104c1565b805f5f5f1b935093509350505b9450945094915050565b5f60038111156104de576104dd610cc4565b5b8260038111156104f1576104f0610cc4565b5b0315610629576001600381111561050b5761050a610cc4565b5b82600381111561051e5761051d610cc4565b5b03610555576040517ff645eedf00000000000000000000000000000000000000000000000000000000815260040160405180910390fd5b6002600381111561056957610568610cc4565b5b82600381111561057c5761057b610cc4565b5b036105c057805f1c6040517ffce698f70000000000000000000000000000000000000000000000000000000081526004016105b79190610cf1565b60405180910390fd5b6003808111156105d3576105d2610cc4565b5b8260038111156105e6576105e5610cc4565b5b0361062857806040517fd78bce0c00000000000000000000000000000000000000000000000000000000815260040161061f9190610d0a565b60405180910390fd5b5b5050565b5f5ffd5b5f819050919050565b61064381610631565b811461064d575f5ffd5b50565b5f8135905061065e8161063a565b92915050565b5f602082840312156106795761067861062d565b5b5f61068684828501610650565b91505092915050565b5f8115159050919050565b6106a38161068f565b82525050565b5f6020820190506106bc5f83018461069a565b92915050565b5f73ffffffffffffffffffffffffffffffffffffffff82169050919050565b5f6106eb826106c2565b9050919050565b6106fb816106e1565b8114610705575f5ffd5b50565b5f81359050610716816106f2565b92915050565b5f819050919050565b61072e8161071c565b8114610738575f5ffd5b50565b5f8135905061074981610725565b92915050565b5f60ff82169050919050565b6107648161074f565b811461076e575f5ffd5b50565b5f8135905061077f8161075b565b92915050565b5f5f5f5f5f5f5f5f5f5f5f6101608c8e0312156107a5576107a461062d565b5b5f6107b28e828f01610708565b9b505060206107c38e828f01610708565b9a505060406107d48e828f01610708565b99505060606107e58e828f0161073b565b98505060806107f68e828f0161073b565b97505060a06108078e828f01610771565b96505060c06108188e828f01610650565b95505060e06108298e828f01610650565b94505061010061083b8e828f01610771565b93505061012061084d8e828f01610650565b92505061014061085f8e828f01610650565b9150509295989b509295989b9093969950565b5f82825260208201905092915050565b7f45787069726564000000000000000000000000000000000000000000000000005f82015250565b5f6108b6600783610872565b91506108c182610882565b602082019050919050565b5f6020820190508181035f8301526108e3816108aa565b9050919050565b5f8160601b9050919050565b5f610900826108ea565b9050919050565b5f610911826108f6565b9050919050565b610929610924826106e1565b610907565b82525050565b5f819050919050565b6109496109448261071c565b61092f565b82525050565b5f61095a8289610918565b60148201915061096a8288610918565b60148201915061097a8287610918565b60148201915061098a8286610938565b60208201915061099a8285610938565b6020820191506109aa8284610918565b601482019150819050979650505050505050565b7f496e76616c6964207369676e61747572650000000000000000000000000000005f82015250565b5f6109f2601183610872565b91506109fd826109be565b602082019050919050565b5f6020820190508181035f830152610a1f816109e6565b9050919050565b7f416c7265616479207573656400000000000000000000000000000000000000005f82015250565b5f610a5a600c83610872565b9150610a6582610a26565b602082019050919050565b5f6020820190508181035f830152610a8781610a4e565b9050919050565b610a97816106e1565b82525050565b610aa68161071c565b82525050565b610ab58161074f565b82525050565b610ac481610631565b82525050565b5f60e082019050610add5f83018a610a8e565b610aea6020830189610a8e565b610af76040830188610a9d565b610b046060830187610a9d565b610b116080830186610aac565b610b1e60a0830185610abb565b610b2b60c0830184610abb565b98975050505050505050565b5f606082019050610b4a5f830186610a8e565b610b576020830185610a8e565b610b646040830184610a9d565b949350505050565b610b758161068f565b8114610b7f575f5ffd5b50565b5f81519050610b9081610b6c565b92915050565b5f60208284031215610bab57610baa61062d565b5b5f610bb884828501610b82565b91505092915050565b5f604082019050610bd45f830185610a8e565b610be16020830184610a9d565b9392505050565b5f81905092915050565b7f19457468657265756d205369676e6564204d6573736167653a0a3332000000005f82015250565b5f610c26601c83610be8565b9150610c3182610bf2565b601c82019050919050565b5f819050919050565b610c56610c5182610631565b610c3c565b82525050565b5f610c6682610c1a565b9150610c728284610c45565b60208201915081905092915050565b5f608082019050610c945f830187610abb565b610ca16020830186610aac565b610cae6040830185610abb565b610cbb6060830184610abb565b95945050505050565b7f4e487b71000000000000000000000000000000000000000000000000000000005f52602160045260245ffd5b5f602082019050610d045f830184610a9d565b92915050565b5f602082019050610d1d5f830184610abb565b9291505056fea2646970667358221220d401aabb4e587d2f8e290933ff41476410bc0f6b80e9b1092afd6d1c065c2d0464736f6c634300081e0033",
			"opcodes": "PUSH1 0x80 PUSH1 0x40 MSTORE CALLVALUE DUP1 ISZERO PUSH1 0xE JUMPI PUSH0 PUSH0 REVERT JUMPDEST POP PUSH2 0xD59 DUP1 PUSH2 0x1C PUSH0 CODECOPY PUSH0 RETURN INVALID PUSH1 0x80 PUSH1 0x40 MSTORE CALLVALUE DUP1 ISZERO PUSH2 0xF JUMPI PUSH0 PUSH0 REVERT JUMPDEST POP PUSH1 0x4 CALLDATASIZE LT PUSH2 0x34 JUMPI PUSH0 CALLDATALOAD PUSH1 0xE0 SHR DUP1 PUSH4 0xAEF18BF7 EQ PUSH2 0x38 JUMPI DUP1 PUSH4 0xFF324418 EQ PUSH2 0x68 JUMPI JUMPDEST PUSH0 PUSH0 REVERT JUMPDEST PUSH2 0x52 PUSH1 0x4 DUP1 CALLDATASIZE SUB DUP2 ADD SWAP1 PUSH2 0x4D SWAP2 SWAP1 PUSH2 0x664 JUMP JUMPDEST PUSH2 0x84 JUMP JUMPDEST PUSH1 0x40 MLOAD PUSH2 0x5F SWAP2 SWAP1 PUSH2 0x6A9 JUMP JUMPDEST PUSH1 0x40 MLOAD DUP1 SWAP2 SUB SWAP1 RETURN JUMPDEST PUSH2 0x82 PUSH1 0x4 DUP1 CALLDATASIZE SUB DUP2 ADD SWAP1 PUSH2 0x7D SWAP2 SWAP1 PUSH2 0x785 JUMP JUMPDEST PUSH2 0xA0 JUMP JUMPDEST STOP JUMPDEST PUSH0 PUSH1 0x20 MSTORE DUP1 PUSH0 MSTORE PUSH1 0x40 PUSH0 KECCAK256 PUSH0 SWAP2 POP SLOAD SWAP1 PUSH2 0x100 EXP SWAP1 DIV PUSH1 0xFF AND DUP2 JUMP JUMPDEST DUP7 TIMESTAMP GT ISZERO PUSH2 0xE3 JUMPI PUSH1 0x40 MLOAD PUSH32 0x8C379A000000000000000000000000000000000000000000000000000000000 DUP2 MSTORE PUSH1 0x4 ADD PUSH2 0xDA SWAP1 PUSH2 0x8CC JUMP JUMPDEST PUSH1 0x40 MLOAD DUP1 SWAP2 SUB SWAP1 REVERT JUMPDEST PUSH0 DUP12 DUP12 DUP12 DUP12 DUP12 ADDRESS PUSH1 0x40 MLOAD PUSH1 0x20 ADD PUSH2 0xFF SWAP7 SWAP6 SWAP5 SWAP4 SWAP3 SWAP2 SWAP1 PUSH2 0x94F JUMP JUMPDEST PUSH1 0x40 MLOAD PUSH1 0x20 DUP2 DUP4 SUB SUB DUP2 MSTORE SWAP1 PUSH1 0x40 MSTORE DUP1 MLOAD SWAP1 PUSH1 0x20 ADD KECCAK256 SWAP1 POP PUSH0 PUSH2 0x12C PUSH2 0x124 DUP4 PUSH2 0x387 JUMP JUMPDEST DUP7 DUP7 DUP7 PUSH2 0x3B6 JUMP JUMPDEST SWAP1 POP DUP13 PUSH20 0xFFFFFFFFFFFFFFFFFFFFFFFFFFFFFFFFFFFFFFFF AND DUP2 PUSH20 0xFFFFFFFFFFFFFFFFFFFFFFFFFFFFFFFFFFFFFFFF AND EQ PUSH2 0x19C JUMPI PUSH1 0x40 MLOAD PUSH32 0x8C379A000000000000000000000000000000000000000000000000000000000 DUP2 MSTORE PUSH1 0x4 ADD PUSH2 0x193 SWAP1 PUSH2 0xA08 JUMP JUMPDEST PUSH1 0x40 MLOAD DUP1 SWAP2 SUB SWAP1 REVERT JUMPDEST PUSH0 PUSH0 DUP4 DUP2 MSTORE PUSH1 0x20 ADD SWAP1 DUP2 MSTORE PUSH1 0x20 ADD PUSH0 KECCAK256 PUSH0 SWAP1 SLOAD SWAP1 PUSH2 0x100 EXP SWAP1 DIV PUSH1 0xFF AND ISZERO PUSH2 0x1F9 JUMPI PUSH1 0x40 MLOAD PUSH32 0x8C379A000000000000000000000000000000000000000000000000000000000 DUP2 MSTORE PUSH1 0x4 ADD PUSH2 0x1F0 SWAP1 PUSH2 0xA70 JUMP JUMPDEST PUSH1 0x40 MLOAD DUP1 SWAP2 SUB SWAP1 REVERT JUMPDEST PUSH1 0x1 PUSH0 PUSH0 DUP5 DUP2 MSTORE PUSH1 0x20 ADD SWAP1 DUP2 MSTORE PUSH1 0x20 ADD PUSH0 KECCAK256 PUSH0 PUSH2 0x100 EXP DUP2 SLOAD DUP2 PUSH1 0xFF MUL NOT AND SWAP1 DUP4 ISZERO ISZERO MUL OR SWAP1 SSTORE POP DUP11 PUSH20 0xFFFFFFFFFFFFFFFFFFFFFFFFFFFFFFFFFFFFFFFF AND PUSH4 0xD505ACCF DUP15 ADDRESS DUP14 DUP14 DUP14 DUP14 DUP14 PUSH1 0x40 MLOAD DUP9 PUSH4 0xFFFFFFFF AND PUSH1 0xE0 SHL DUP2 MSTORE PUSH1 0x4 ADD PUSH2 0x266 SWAP8 SWAP7 SWAP6 SWAP5 SWAP4 SWAP3 SWAP2 SWAP1 PUSH2 0xACA JUMP JUMPDEST PUSH0 PUSH1 0x40 MLOAD DUP1 DUP4 SUB DUP2 PUSH0 DUP8 DUP1 EXTCODESIZE ISZERO DUP1 ISZERO PUSH2 0x27D JUMPI PUSH0 PUSH0 REVERT JUMPDEST POP GAS CALL ISZERO DUP1 ISZERO PUSH2 0x28F JUMPI RETURNDATASIZE PUSH0 PUSH0 RETURNDATACOPY RETURNDATASIZE PUSH0 REVERT JUMPDEST POP POP POP POP DUP11 PUSH20 0xFFFFFFFFFFFFFFFFFFFFFFFFFFFFFFFFFFFFFFFF AND PUSH4 0x23B872DD DUP15 DUP15 DUP14 PUSH1 0x40 MLOAD DUP5 PUSH4 0xFFFFFFFF AND PUSH1 0xE0 SHL DUP2 MSTORE PUSH1 0x4 ADD PUSH2 0x2D0 SWAP4 SWAP3 SWAP2 SWAP1 PUSH2 0xB37 JUMP JUMPDEST PUSH1 0x20 PUSH1 0x40 MLOAD DUP1 DUP4 SUB DUP2 PUSH0 DUP8 GAS CALL ISZERO DUP1 ISZERO PUSH2 0x2EC JUMPI RETURNDATASIZE PUSH0 PUSH0 RETURNDATACOPY RETURNDATASIZE PUSH0 REVERT JUMPDEST POP POP POP POP PUSH1 0x40 MLOAD RETURNDATASIZE PUSH1 0x1F NOT PUSH1 0x1F DUP3 ADD AND DUP3 ADD DUP1 PUSH1 0x40 MSTORE POP DUP2 ADD SWAP1 PUSH2 0x310 SWAP2 SWAP1 PUSH2 0xB96 JUMP JUMPDEST POP DUP12 PUSH20 0xFFFFFFFFFFFFFFFFFFFFFFFFFFFFFFFFFFFFFFFF AND DUP14 PUSH20 0xFFFFFFFFFFFFFFFFFFFFFFFFFFFFFFFFFFFFFFFF AND PUSH32 0xA4195C37C2947BBE89165F03E320B6903116F0B10D8CFDB522330F7CE6F9FA24 DUP14 DUP14 PUSH1 0x40 MLOAD PUSH2 0x370 SWAP3 SWAP2 SWAP1 PUSH2 0xBC1 JUMP JUMPDEST PUSH1 0x40 MLOAD DUP1 SWAP2 SUB SWAP1 LOG3 POP POP POP POP POP POP POP POP POP POP POP POP POP JUMP JUMPDEST PUSH0 DUP2 PUSH1 0x40 MLOAD PUSH1 0x20 ADD PUSH2 0x399 SWAP2 SWAP1 PUSH2 0xC5C JUMP JUMPDEST PUSH1 0x40 MLOAD PUSH1 0x20 DUP2 DUP4 SUB SUB DUP2 MSTORE SWAP1 PUSH1 0x40 MSTORE DUP1 MLOAD SWAP1 PUSH1 0x20 ADD KECCAK256 SWAP1 POP SWAP2 SWAP1 POP JUMP JUMPDEST PUSH0 PUSH0 PUSH0 PUSH0 PUSH2 0x3C6 DUP9 DUP9 DUP9 DUP9 PUSH2 0x3E4 JUMP JUMPDEST SWAP3 POP SWAP3 POP SWAP3 POP PUSH2 0x3D6 DUP3 DUP3 PUSH2 0x4CB JUMP JUMPDEST DUP3 SWAP4 POP POP POP POP SWAP5 SWAP4 POP POP POP POP JUMP JUMPDEST PUSH0 PUSH0 PUSH0 PUSH32 0x7FFFFFFFFFFFFFFFFFFFFFFFFFFFFFFF5D576E7357A4501DDFE92F46681B20A0 DUP5 PUSH0 SHR GT ISZERO PUSH2 0x420 JUMPI PUSH0 PUSH1 0x3 DUP6 SWAP3 POP SWAP3 POP SWAP3 POP PUSH2 0x4C1 JUMP JUMPDEST PUSH0 PUSH1 0x1 DUP9 DUP9 DUP9 DUP9 PUSH1 0x40 MLOAD PUSH0 DUP2 MSTORE PUSH1 0x20 ADD PUSH1 0x40 MSTORE PUSH1 0x40 MLOAD PUSH2 0x443 SWAP5 SWAP4 SWAP3 SWAP2 SWAP1 PUSH2 0xC81 JUMP JUMPDEST PUSH1 0x20 PUSH1 0x40 MLOAD PUSH1 0x20 DUP2 SUB SWAP1 DUP1 DUP5 SUB SWAP1 DUP6 GAS STATICCALL ISZERO DUP1 ISZERO PUSH2 0x463 JUMPI RETURNDATASIZE PUSH0 PUSH0 RETURNDATACOPY RETURNDATASIZE PUSH0 REVERT JUMPDEST POP POP POP PUSH1 0x20 PUSH1 0x40 MLOAD SUB MLOAD SWAP1 POP PUSH0 PUSH20 0xFFFFFFFFFFFFFFFFFFFFFFFFFFFFFFFFFFFFFFFF AND DUP2 PUSH20 0xFFFFFFFFFFFFFFFFFFFFFFFFFFFFFFFFFFFFFFFF AND SUB PUSH2 0x4B4 JUMPI PUSH0 PUSH1 0x1 PUSH0 PUSH0 SHL SWAP4 POP SWAP4 POP SWAP4 POP POP PUSH2 0x4C1 JUMP JUMPDEST DUP1 PUSH0 PUSH0 PUSH0 SHL SWAP4 POP SWAP4 POP SWAP4 POP POP JUMPDEST SWAP5 POP SWAP5 POP SWAP5 SWAP2 POP POP JUMP JUMPDEST PUSH0 PUSH1 0x3 DUP2 GT ISZERO PUSH2 0x4DE JUMPI PUSH2 0x4DD PUSH2 0xCC4 JUMP JUMPDEST JUMPDEST DUP3 PUSH1 0x3 DUP2 GT ISZERO PUSH2 0x4F1 JUMPI PUSH2 0x4F0 PUSH2 0xCC4 JUMP JUMPDEST JUMPDEST SUB ISZERO PUSH2 0x629 JUMPI PUSH1 0x1 PUSH1 0x3 DUP2 GT ISZERO PUSH2 0x50B JUMPI PUSH2 0x50A PUSH2 0xCC4 JUMP JUMPDEST JUMPDEST DUP3 PUSH1 0x3 DUP2 GT ISZERO PUSH2 0x51E JUMPI PUSH2 0x51D PUSH2 0xCC4 JUMP JUMPDEST JUMPDEST SUB PUSH2 0x555 JUMPI PUSH1 0x40 MLOAD PUSH32 0xF645EEDF00000000000000000000000000000000000000000000000000000000 DUP2 MSTORE PUSH1 0x4 ADD PUSH1 0x40 MLOAD DUP1 SWAP2 SUB SWAP1 REVERT JUMPDEST PUSH1 0x2 PUSH1 0x3 DUP2 GT ISZERO PUSH2 0x569 JUMPI PUSH2 0x568 PUSH2 0xCC4 JUMP JUMPDEST JUMPDEST DUP3 PUSH1 0x3 DUP2 GT ISZERO PUSH2 0x57C JUMPI PUSH2 0x57B PUSH2 0xCC4 JUMP JUMPDEST JUMPDEST SUB PUSH2 0x5C0 JUMPI DUP1 PUSH0 SHR PUSH1 0x40 MLOAD PUSH32 0xFCE698F700000000000000000000000000000000000000000000000000000000 DUP2 MSTORE PUSH1 0x4 ADD PUSH2 0x5B7 SWAP2 SWAP1 PUSH2 0xCF1 JUMP JUMPDEST PUSH1 0x40 MLOAD DUP1 SWAP2 SUB SWAP1 REVERT JUMPDEST PUSH1 0x3 DUP1 DUP2 GT ISZERO PUSH2 0x5D3 JUMPI PUSH2 0x5D2 PUSH2 0xCC4 JUMP JUMPDEST JUMPDEST DUP3 PUSH1 0x3 DUP2 GT ISZERO PUSH2 0x5E6 JUMPI PUSH2 0x5E5 PUSH2 0xCC4 JUMP JUMPDEST JUMPDEST SUB PUSH2 0x628 JUMPI DUP1 PUSH1 0x40 MLOAD PUSH32 0xD78BCE0C00000000000000000000000000000000000000000000000000000000 DUP2 MSTORE PUSH1 0x4 ADD PUSH2 0x61F SWAP2 SWAP1 PUSH2 0xD0A JUMP JUMPDEST PUSH1 0x40 MLOAD DUP1 SWAP2 SUB SWAP1 REVERT JUMPDEST JUMPDEST POP POP JUMP JUMPDEST PUSH0 PUSH0 REVERT JUMPDEST PUSH0 DUP2 SWAP1 POP SWAP2 SWAP1 POP JUMP JUMPDEST PUSH2 0x643 DUP2 PUSH2 0x631 JUMP JUMPDEST DUP2 EQ PUSH2 0x64D JUMPI PUSH0 PUSH0 REVERT JUMPDEST POP JUMP JUMPDEST PUSH0 DUP2 CALLDATALOAD SWAP1 POP PUSH2 0x65E DUP2 PUSH2 0x63A JUMP JUMPDEST SWAP3 SWAP2 POP POP JUMP JUMPDEST PUSH0 PUSH1 0x20 DUP3 DUP5 SUB SLT ISZERO PUSH2 0x679 JUMPI PUSH2 0x678 PUSH2 0x62D JUMP JUMPDEST JUMPDEST PUSH0 PUSH2 0x686 DUP5 DUP3 DUP6 ADD PUSH2 0x650 JUMP JUMPDEST SWAP2 POP POP SWAP3 SWAP2 POP POP JUMP JUMPDEST PUSH0 DUP2 ISZERO ISZERO SWAP1 POP SWAP2 SWAP1 POP JUMP JUMPDEST PUSH2 0x6A3 DUP2 PUSH2 0x68F JUMP JUMPDEST DUP3 MSTORE POP POP JUMP JUMPDEST PUSH0 PUSH1 0x20 DUP3 ADD SWAP1 POP PUSH2 0x6BC PUSH0 DUP4 ADD DUP5 PUSH2 0x69A JUMP JUMPDEST SWAP3 SWAP2 POP POP JUMP JUMPDEST PUSH0 PUSH20 0xFFFFFFFFFFFFFFFFFFFFFFFFFFFFFFFFFFFFFFFF DUP3 AND SWAP1 POP SWAP2 SWAP1 POP JUMP JUMPDEST PUSH0 PUSH2 0x6EB DUP3 PUSH2 0x6C2 JUMP JUMPDEST SWAP1 POP SWAP2 SWAP1 POP JUMP JUMPDEST PUSH2 0x6FB DUP2 PUSH2 0x6E1 JUMP JUMPDEST DUP2 EQ PUSH2 0x705 JUMPI PUSH0 PUSH0 REVERT JUMPDEST POP JUMP JUMPDEST PUSH0 DUP2 CALLDATALOAD SWAP1 POP PUSH2 0x716 DUP2 PUSH2 0x6F2 JUMP JUMPDEST SWAP3 SWAP2 POP POP JUMP JUMPDEST PUSH0 DUP2 SWAP1 POP SWAP2 SWAP1 POP JUMP JUMPDEST PUSH2 0x72E DUP2 PUSH2 0x71C JUMP JUMPDEST DUP2 EQ PUSH2 0x738 JUMPI PUSH0 PUSH0 REVERT JUMPDEST POP JUMP JUMPDEST PUSH0 DUP2 CALLDATALOAD SWAP1 POP PUSH2 0x749 DUP2 PUSH2 0x725 JUMP JUMPDEST SWAP3 SWAP2 POP POP JUMP JUMPDEST PUSH0 PUSH1 0xFF DUP3 AND SWAP1 POP SWAP2 SWAP1 POP JUMP JUMPDEST PUSH2 0x764 DUP2 PUSH2 0x74F JUMP JUMPDEST DUP2 EQ PUSH2 0x76E JUMPI PUSH0 PUSH0 REVERT JUMPDEST POP JUMP JUMPDEST PUSH0 DUP2 CALLDATALOAD SWAP1 POP PUSH2 0x77F DUP2 PUSH2 0x75B JUMP JUMPDEST SWAP3 SWAP2 POP POP JUMP JUMPDEST PUSH0 PUSH0 PUSH0 PUSH0 PUSH0 PUSH0 PUSH0 PUSH0 PUSH0 PUSH0 PUSH0 PUSH2 0x160 DUP13 DUP15 SUB SLT ISZERO PUSH2 0x7A5 JUMPI PUSH2 0x7A4 PUSH2 0x62D JUMP JUMPDEST JUMPDEST PUSH0 PUSH2 0x7B2 DUP15 DUP3 DUP16 ADD PUSH2 0x708 JUMP JUMPDEST SWAP12 POP POP PUSH1 0x20 PUSH2 0x7C3 DUP15 DUP3 DUP16 ADD PUSH2 0x708 JUMP JUMPDEST SWAP11 POP POP PUSH1 0x40 PUSH2 0x7D4 DUP15 DUP3 DUP16 ADD PUSH2 0x708 JUMP JUMPDEST SWAP10 POP POP PUSH1 0x60 PUSH2 0x7E5 DUP15 DUP3 DUP16 ADD PUSH2 0x73B JUMP JUMPDEST SWAP9 POP POP PUSH1 0x80 PUSH2 0x7F6 DUP15 DUP3 DUP16 ADD PUSH2 0x73B JUMP JUMPDEST SWAP8 POP POP PUSH1 0xA0 PUSH2 0x807 DUP15 DUP3 DUP16 ADD PUSH2 0x771 JUMP JUMPDEST SWAP7 POP POP PUSH1 0xC0 PUSH2 0x818 DUP15 DUP3 DUP16 ADD PUSH2 0x650 JUMP JUMPDEST SWAP6 POP POP PUSH1 0xE0 PUSH2 0x829 DUP15 DUP3 DUP16 ADD PUSH2 0x650 JUMP JUMPDEST SWAP5 POP POP PUSH2 0x100 PUSH2 0x83B DUP15 DUP3 DUP16 ADD PUSH2 0x771 JUMP JUMPDEST SWAP4 POP POP PUSH2 0x120 PUSH2 0x84D DUP15 DUP3 DUP16 ADD PUSH2 0x650 JUMP JUMPDEST SWAP3 POP POP PUSH2 0x140 PUSH2 0x85F DUP15 DUP3 DUP16 ADD PUSH2 0x650 JUMP JUMPDEST SWAP2 POP POP SWAP3 SWAP6 SWAP9 SWAP12 POP SWAP3 SWAP6 SWAP9 SWAP12 SWAP1 SWAP4 SWAP7 SWAP10 POP JUMP JUMPDEST PUSH0 DUP3 DUP3 MSTORE PUSH1 0x20 DUP3 ADD SWAP1 POP SWAP3 SWAP2 POP POP JUMP JUMPDEST PUSH32 0x4578706972656400000000000000000000000000000000000000000000000000 PUSH0 DUP3 ADD MSTORE POP JUMP JUMPDEST PUSH0 PUSH2 0x8B6 PUSH1 0x7 DUP4 PUSH2 0x872 JUMP JUMPDEST SWAP2 POP PUSH2 0x8C1 DUP3 PUSH2 0x882 JUMP JUMPDEST PUSH1 0x20 DUP3 ADD SWAP1 POP SWAP2 SWAP1 POP JUMP JUMPDEST PUSH0 PUSH1 0x20 DUP3 ADD SWAP1 POP DUP2 DUP2 SUB PUSH0 DUP4 ADD MSTORE PUSH2 0x8E3 DUP2 PUSH2 0x8AA JUMP JUMPDEST SWAP1 POP SWAP2 SWAP1 POP JUMP JUMPDEST PUSH0 DUP2 PUSH1 0x60 SHL SWAP1 POP SWAP2 SWAP1 POP JUMP JUMPDEST PUSH0 PUSH2 0x900 DUP3 PUSH2 0x8EA JUMP JUMPDEST SWAP1 POP SWAP2 SWAP1 POP JUMP JUMPDEST PUSH0 PUSH2 0x911 DUP3 PUSH2 0x8F6 JUMP JUMPDEST SWAP1 POP SWAP2 SWAP1 POP JUMP JUMPDEST PUSH2 0x929 PUSH2 0x924 DUP3 PUSH2 0x6E1 JUMP JUMPDEST PUSH2 0x907 JUMP JUMPDEST DUP3 MSTORE POP POP JUMP JUMPDEST PUSH0 DUP2 SWAP1 POP SWAP2 SWAP1 POP JUMP JUMPDEST PUSH2 0x949 PUSH2 0x944 DUP3 PUSH2 0x71C JUMP JUMPDEST PUSH2 0x92F JUMP JUMPDEST DUP3 MSTORE POP POP JUMP JUMPDEST PUSH0 PUSH2 0x95A DUP3 DUP10 PUSH2 0x918 JUMP JUMPDEST PUSH1 0x14 DUP3 ADD SWAP2 POP PUSH2 0x96A DUP3 DUP9 PUSH2 0x918 JUMP JUMPDEST PUSH1 0x14 DUP3 ADD SWAP2 POP PUSH2 0x97A DUP3 DUP8 PUSH2 0x918 JUMP JUMPDEST PUSH1 0x14 DUP3 ADD SWAP2 POP PUSH2 0x98A DUP3 DUP7 PUSH2 0x938 JUMP JUMPDEST PUSH1 0x20 DUP3 ADD SWAP2 POP PUSH2 0x99A DUP3 DUP6 PUSH2 0x938 JUMP JUMPDEST PUSH1 0x20 DUP3 ADD SWAP2 POP PUSH2 0x9AA DUP3 DUP5 PUSH2 0x918 JUMP JUMPDEST PUSH1 0x14 DUP3 ADD SWAP2 POP DUP2 SWAP1 POP SWAP8 SWAP7 POP POP POP POP POP POP POP JUMP JUMPDEST PUSH32 0x496E76616C6964207369676E6174757265000000000000000000000000000000 PUSH0 DUP3 ADD MSTORE POP JUMP JUMPDEST PUSH0 PUSH2 0x9F2 PUSH1 0x11 DUP4 PUSH2 0x872 JUMP JUMPDEST SWAP2 POP PUSH2 0x9FD DUP3 PUSH2 0x9BE JUMP JUMPDEST PUSH1 0x20 DUP3 ADD SWAP1 POP SWAP2 SWAP1 POP JUMP JUMPDEST PUSH0 PUSH1 0x20 DUP3 ADD SWAP1 POP DUP2 DUP2 SUB PUSH0 DUP4 ADD MSTORE PUSH2 0xA1F DUP2 PUSH2 0x9E6 JUMP JUMPDEST SWAP1 POP SWAP2 SWAP1 POP JUMP JUMPDEST PUSH32 0x416C726561647920757365640000000000000000000000000000000000000000 PUSH0 DUP3 ADD MSTORE POP JUMP JUMPDEST PUSH0 PUSH2 0xA5A PUSH1 0xC DUP4 PUSH2 0x872 JUMP JUMPDEST SWAP2 POP PUSH2 0xA65 DUP3 PUSH2 0xA26 JUMP JUMPDEST PUSH1 0x20 DUP3 ADD SWAP1 POP SWAP2 SWAP1 POP JUMP JUMPDEST PUSH0 PUSH1 0x20 DUP3 ADD SWAP1 POP DUP2 DUP2 SUB PUSH0 DUP4 ADD MSTORE PUSH2 0xA87 DUP2 PUSH2 0xA4E JUMP JUMPDEST SWAP1 POP SWAP2 SWAP1 POP JUMP JUMPDEST PUSH2 0xA97 DUP2 PUSH2 0x6E1 JUMP JUMPDEST DUP3 MSTORE POP POP JUMP JUMPDEST PUSH2 0xAA6 DUP2 PUSH2 0x71C JUMP JUMPDEST DUP3 MSTORE POP POP JUMP JUMPDEST PUSH2 0xAB5 DUP2 PUSH2 0x74F JUMP JUMPDEST DUP3 MSTORE POP POP JUMP JUMPDEST PUSH2 0xAC4 DUP2 PUSH2 0x631 JUMP JUMPDEST DUP3 MSTORE POP POP JUMP JUMPDEST PUSH0 PUSH1 0xE0 DUP3 ADD SWAP1 POP PUSH2 0xADD PUSH0 DUP4 ADD DUP11 PUSH2 0xA8E JUMP JUMPDEST PUSH2 0xAEA PUSH1 0x20 DUP4 ADD DUP10 PUSH2 0xA8E JUMP JUMPDEST PUSH2 0xAF7 PUSH1 0x40 DUP4 ADD DUP9 PUSH2 0xA9D JUMP JUMPDEST PUSH2 0xB04 PUSH1 0x60 DUP4 ADD DUP8 PUSH2 0xA9D JUMP JUMPDEST PUSH2 0xB11 PUSH1 0x80 DUP4 ADD DUP7 PUSH2 0xAAC JUMP JUMPDEST PUSH2 0xB1E PUSH1 0xA0 DUP4 ADD DUP6 PUSH2 0xABB JUMP JUMPDEST PUSH2 0xB2B PUSH1 0xC0 DUP4 ADD DUP5 PUSH2 0xABB JUMP JUMPDEST SWAP9 SWAP8 POP POP POP POP POP POP POP POP JUMP JUMPDEST PUSH0 PUSH1 0x60 DUP3 ADD SWAP1 POP PUSH2 0xB4A PUSH0 DUP4 ADD DUP7 PUSH2 0xA8E JUMP JUMPDEST PUSH2 0xB57 PUSH1 0x20 DUP4 ADD DUP6 PUSH2 0xA8E JUMP JUMPDEST PUSH2 0xB64 PUSH1 0x40 DUP4 ADD DUP5 PUSH2 0xA9D JUMP JUMPDEST SWAP5 SWAP4 POP POP POP POP JUMP JUMPDEST PUSH2 0xB75 DUP2 PUSH2 0x68F JUMP JUMPDEST DUP2 EQ PUSH2 0xB7F JUMPI PUSH0 PUSH0 REVERT JUMPDEST POP JUMP JUMPDEST PUSH0 DUP2 MLOAD SWAP1 POP PUSH2 0xB90 DUP2 PUSH2 0xB6C JUMP JUMPDEST SWAP3 SWAP2 POP POP JUMP JUMPDEST PUSH0 PUSH1 0x20 DUP3 DUP5 SUB SLT ISZERO PUSH2 0xBAB JUMPI PUSH2 0xBAA PUSH2 0x62D JUMP JUMPDEST JUMPDEST PUSH0 PUSH2 0xBB8 DUP5 DUP3 DUP6 ADD PUSH2 0xB82 JUMP JUMPDEST SWAP2 POP POP SWAP3 SWAP2 POP POP JUMP JUMPDEST PUSH0 PUSH1 0x40 DUP3 ADD SWAP1 POP PUSH2 0xBD4 PUSH0 DUP4 ADD DUP6 PUSH2 0xA8E JUMP JUMPDEST PUSH2 0xBE1 PUSH1 0x20 DUP4 ADD DUP5 PUSH2 0xA9D JUMP JUMPDEST SWAP4 SWAP3 POP POP POP JUMP JUMPDEST PUSH0 DUP2 SWAP1 POP SWAP3 SWAP2 POP POP JUMP JUMPDEST PUSH32 0x19457468657265756D205369676E6564204D6573736167653A0A333200000000 PUSH0 DUP3 ADD MSTORE POP JUMP JUMPDEST PUSH0 PUSH2 0xC26 PUSH1 0x1C DUP4 PUSH2 0xBE8 JUMP JUMPDEST SWAP2 POP PUSH2 0xC31 DUP3 PUSH2 0xBF2 JUMP JUMPDEST PUSH1 0x1C DUP3 ADD SWAP1 POP SWAP2 SWAP1 POP JUMP JUMPDEST PUSH0 DUP2 SWAP1 POP SWAP2 SWAP1 POP JUMP JUMPDEST PUSH2 0xC56 PUSH2 0xC51 DUP3 PUSH2 0x631 JUMP JUMPDEST PUSH2 0xC3C JUMP JUMPDEST DUP3 MSTORE POP POP JUMP JUMPDEST PUSH0 PUSH2 0xC66 DUP3 PUSH2 0xC1A JUMP JUMPDEST SWAP2 POP PUSH2 0xC72 DUP3 DUP5 PUSH2 0xC45 JUMP JUMPDEST PUSH1 0x20 DUP3 ADD SWAP2 POP DUP2 SWAP1 POP SWAP3 SWAP2 POP POP JUMP JUMPDEST PUSH0 PUSH1 0x80 DUP3 ADD SWAP1 POP PUSH2 0xC94 PUSH0 DUP4 ADD DUP8 PUSH2 0xABB JUMP JUMPDEST PUSH2 0xCA1 PUSH1 0x20 DUP4 ADD DUP7 PUSH2 0xAAC JUMP JUMPDEST PUSH2 0xCAE PUSH1 0x40 DUP4 ADD DUP6 PUSH2 0xABB JUMP JUMPDEST PUSH2 0xCBB PUSH1 0x60 DUP4 ADD DUP5 PUSH2 0xABB JUMP JUMPDEST SWAP6 SWAP5 POP POP POP POP POP JUMP JUMPDEST PUSH32 0x4E487B7100000000000000000000000000000000000000000000000000000000 PUSH0 MSTORE PUSH1 0x21 PUSH1 0x4 MSTORE PUSH1 0x24 PUSH0 REVERT JUMPDEST PUSH0 PUSH1 0x20 DUP3 ADD SWAP1 POP PUSH2 0xD04 PUSH0 DUP4 ADD DUP5 PUSH2 0xA9D JUMP JUMPDEST SWAP3 SWAP2 POP POP JUMP JUMPDEST PUSH0 PUSH1 0x20 DUP3 ADD SWAP1 POP PUSH2 0xD1D PUSH0 DUP4 ADD DUP5 PUSH2 0xABB JUMP JUMPDEST SWAP3 SWAP2 POP POP JUMP INVALID LOG2 PUSH5 0x6970667358 0x22 SLT KECCAK256 0xD4 ADD 0xAA 0xBB 0x4E PC PUSH30 0x2F8E290933FF41476410BC0F6B80E9B1092AFD6D1C065C2D0464736F6C63 NUMBER STOP ADDMOD 0x1E STOP CALLER "
		},
		"gasEstimates": {
			"creation": {
				"codeDepositCost": "683400",
				"executionCost": "713",
				"totalCost": "684113"
			},
			"external": {
				"usedHashes(bytes32)": "2762",
				"withdraw(address,address,address,uint256,uint256,uint8,bytes32,bytes32,uint8,bytes32,bytes32)": "infinite"
			},
			"internal": {
				"toEthSignedMessageHash(bytes32)": "infinite"
			}
		},
		"methodIdentifiers": {
			"usedHashes(bytes32)": "aef18bf7",
			"withdraw(address,address,address,uint256,uint256,uint8,bytes32,bytes32,uint8,bytes32,bytes32)": "ff324418"
		}
	},
	"abi": [
		{
			"inputs": [],
			"name": "ECDSAInvalidSignature",
			"type": "error"
		},
		{
			"inputs": [
				{
					"internalType": "uint256",
					"name": "length",
					"type": "uint256"
				}
			],
			"name": "ECDSAInvalidSignatureLength",
			"type": "error"
		},
		{
			"inputs": [
				{
					"internalType": "bytes32",
					"name": "s",
					"type": "bytes32"
				}
			],
			"name": "ECDSAInvalidSignatureS",
			"type": "error"
		},
		{
			"anonymous": false,
			"inputs": [
				{
					"indexed": true,
					"internalType": "address",
					"name": "from",
					"type": "address"
				},
				{
					"indexed": true,
					"internalType": "address",
					"name": "to",
					"type": "address"
				},
				{
					"indexed": false,
					"internalType": "address",
					"name": "token",
					"type": "address"
				},
				{
					"indexed": false,
					"internalType": "uint256",
					"name": "amount",
					"type": "uint256"
				}
			],
			"name": "Withdrawn",
			"type": "event"
		},
		{
			"inputs": [
				{
					"internalType": "bytes32",
					"name": "",
					"type": "bytes32"
				}
			],
			"name": "usedHashes",
			"outputs": [
				{
					"internalType": "bool",
					"name": "",
					"type": "bool"
				}
			],
			"stateMutability": "view",
			"type": "function"
		},
		{
			"inputs": [
				{
					"internalType": "address",
					"name": "from",
					"type": "address"
				},
				{
					"internalType": "address",
					"name": "to",
					"type": "address"
				},
				{
					"internalType": "address",
					"name": "token",
					"type": "address"
				},
				{
					"internalType": "uint256",
					"name": "amount",
					"type": "uint256"
				},
				{
					"internalType": "uint256",
					"name": "deadline",
					"type": "uint256"
				},
				{
					"internalType": "uint8",
					"name": "v",
					"type": "uint8"
				},
				{
					"internalType": "bytes32",
					"name": "r",
					"type": "bytes32"
				},
				{
					"internalType": "bytes32",
					"name": "s",
					"type": "bytes32"
				},
				{
					"internalType": "uint8",
					"name": "sigV",
					"type": "uint8"
				},
				{
					"internalType": "bytes32",
					"name": "sigR",
					"type": "bytes32"
				},
				{
					"internalType": "bytes32",
					"name": "sigS",
					"type": "bytes32"
				}
			],
			"name": "withdraw",
			"outputs": [],
			"stateMutability": "nonpayable",
			"type": "function"
		}
	]
}