{
	"src/TokenEscrow.sol": {
		"TokenEscrow": {
			"abi": [
				{
					"inputs": [],
					"name": "ECDSAInvalidSignature",
					"type": "error"
				},
				{
					"inputs": [
						{
							"internalType": "uint256",
							"name": "length",
							"type": "uint256"
						}
					],
					"name": "ECDSAInvalidSignatureLength",
					"type": "error"
				},
				{
					"inputs": [
						{
							"internalType": "bytes32",
							"name": "s",
							"type": "bytes32"
						}
					],
					"name": "ECDSAInvalidSignatureS",
					"type": "error"
				},
				{
					"anonymous": false,
					"inputs": [
						{
							"indexed": true,
							"internalType": "address",
							"name": "sender",
							"type": "address"
						},
						{
							"indexed": true,
							"internalType": "address",
							"name": "receiver",
							"type": "address"
						},
						{
							"indexed": false,
							"internalType": "address",
							"name": "token",
							"type": "address"
						},
						{
							"indexed": false,
							"internalType": "uint256",
							"name": "amount",
							"type": "uint256"
						}
					],
					"name": "Withdraw",
					"type": "event"
				},
				{
					"inputs": [
						{
							"internalType": "address",
							"name": "sender",
							"type": "address"
						},
						{
							"internalType": "address",
							"name": "receiver",
							"type": "address"
						},
						{
							"internalType": "address",
							"name": "token",
							"type": "address"
						},
						{
							"internalType": "uint256",
							"name": "amount",
							"type": "uint256"
						},
						{
							"internalType": "uint256",
							"name": "deadline",
							"type": "uint256"
						},
						{
							"internalType": "bytes",
							"name": "signature",
							"type": "bytes"
						}
					],
					"name": "withdraw",
					"outputs": [],
					"stateMutability": "nonpayable",
					"type": "function"
				}
			],
			"devdoc": {
				"errors": {
					"ECDSAInvalidSignature()": [
						{
							"details": "The signature derives the `address(0)`."
						}
					],
					"ECDSAInvalidSignatureLength(uint256)": [
						{
							"details": "The signature has an invalid length."
						}
					],
					"ECDSAInvalidSignatureS(bytes32)": [
						{
							"details": "The signature has an S value that is in the upper half order."
						}
					]
				},
				"kind": "dev",
				"methods": {},
				"version": 1
			},
			"evm": {
				"assembly": "    /* \"src/TokenEscrow.sol\":179:1224  contract TokenEscrow {... */\n  mstore(0x40, 0x80)\n  callvalue\n  dup1\n  iszero\n  tag_1\n  jumpi\n  0x00\n  dup1\n  revert\ntag_1:\n  pop\n  dataSize(sub_0)\n  dup1\n  dataOffset(sub_0)\n  0x00\n  codecopy\n  0x00\n  return\nstop\n\nsub_0: assembly {\n        /* \"src/TokenEscrow.sol\":179:1224  contract TokenEscrow {... */\n      mstore(0x40, 0x80)\n      callvalue\n      dup1\n      iszero\n      tag_1\n      jumpi\n      0x00\n      dup1\n      revert\n    tag_1:\n      pop\n      jumpi(tag_2, lt(calldatasize, 0x04))\n      shr(0xe0, calldataload(0x00))\n      dup1\n      0x8c2b3ef7\n      eq\n      tag_3\n      jumpi\n    tag_2:\n      0x00\n      dup1\n      revert\n        /* \"src/TokenEscrow.sol\":515:1222  function withdraw(... */\n    tag_3:\n      tag_4\n      0x04\n      dup1\n      calldatasize\n      sub\n      dup2\n      add\n      swap1\n      tag_5\n      swap2\n      swap1\n      tag_6\n      jump\t// in\n    tag_5:\n      tag_7\n      jump\t// in\n    tag_4:\n      stop\n    tag_7:\n        /* \"src/TokenEscrow.sol\":742:750  deadline */\n      dup3\n        /* \"src/TokenEscrow.sol\":723:738  block.timestamp */\n      timestamp\n        /* \"src/TokenEscrow.sol\":723:750  block.timestamp <= deadline */\n      gt\n      iszero\n        /* \"src/TokenEscrow.sol\":715:762  require(block.timestamp <= deadline, \"Expired\") */\n      tag_9\n      jumpi\n      mload(0x40)\n      0x08c379a000000000000000000000000000000000000000000000000000000000\n      dup2\n      mstore\n      0x04\n      add\n      tag_10\n      swap1\n      tag_11\n      jump\t// in\n    tag_10:\n      mload(0x40)\n      dup1\n      swap2\n      sub\n      swap1\n      revert\n    tag_9:\n        /* \"src/TokenEscrow.sol\":773:785  bytes32 hash */\n      0x00\n        /* \"src/TokenEscrow.sol\":828:834  sender */\n      dup8\n        /* \"src/TokenEscrow.sol\":836:844  receiver */\n      dup8\n        /* \"src/TokenEscrow.sol\":846:851  token */\n      dup8\n        /* \"src/TokenEscrow.sol\":853:859  amount */\n      dup8\n        /* \"src/TokenEscrow.sol\":861:869  deadline */\n      dup8\n        /* \"src/TokenEscrow.sol\":879:883  this */\n      address\n        /* \"src/TokenEscrow.sol\":811:885  abi.encodePacked(sender, receiver, token, amount, deadline, address(this)) */\n      add(0x20, mload(0x40))\n      tag_12\n      swap7\n      swap6\n      swap5\n      swap4\n      swap3\n      swap2\n      swap1\n      tag_13\n      jump\t// in\n    tag_12:\n      mload(0x40)\n      0x20\n      dup2\n      dup4\n      sub\n      sub\n      dup2\n      mstore\n      swap1\n      0x40\n      mstore\n        /* \"src/TokenEscrow.sol\":788:895  keccak256(... */\n      dup1\n      mload\n      swap1\n      0x20\n      add\n      keccak256\n        /* \"src/TokenEscrow.sol\":773:895  bytes32 hash = keccak256(... */\n      swap1\n      pop\n        /* \"src/TokenEscrow.sol\":905:923  bytes32 signedHash */\n      0x00\n        /* \"src/TokenEscrow.sol\":926:954  toEthSignedMessageHash(hash) */\n      tag_14\n        /* \"src/TokenEscrow.sol\":949:953  hash */\n      dup3\n        /* \"src/TokenEscrow.sol\":926:948  toEthSignedMessageHash */\n      tag_15\n        /* \"src/TokenEscrow.sol\":926:954  toEthSignedMessageHash(hash) */\n      jump\t// in\n    tag_14:\n        /* \"src/TokenEscrow.sol\":905:954  bytes32 signedHash = toEthSignedMessageHash(hash) */\n      swap1\n      pop\n        /* \"src/TokenEscrow.sol\":965:979  address signer */\n      0x00\n        /* \"src/TokenEscrow.sol\":982:1011  signedHash.recover(signature) */\n      tag_16\n        /* \"src/TokenEscrow.sol\":1001:1010  signature */\n      dup6\n      dup6\n        /* \"src/TokenEscrow.sol\":982:1011  signedHash.recover(signature) */\n      dup1\n      dup1\n      0x1f\n      add\n      0x20\n      dup1\n      swap2\n      div\n      mul\n      0x20\n      add\n      mload(0x40)\n      swap1\n      dup2\n      add\n      0x40\n      mstore\n      dup1\n      swap4\n      swap3\n      swap2\n      swap1\n      dup2\n      dup2\n      mstore\n      0x20\n      add\n      dup4\n      dup4\n      dup1\n      dup3\n      dup5\n      calldatacopy\n      0x00\n      dup2\n      dup5\n      add\n      mstore\n      not(0x1f)\n      0x1f\n      dup3\n      add\n      and\n      swap1\n      pop\n      dup1\n      dup4\n      add\n      swap3\n      pop\n      pop\n      pop\n      pop\n      pop\n      pop\n      pop\n        /* \"src/TokenEscrow.sol\":982:992  signedHash */\n      dup4\n        /* \"src/TokenEscrow.sol\":982:1000  signedHash.recover */\n      tag_17\n      swap1\n        /* \"src/TokenEscrow.sol\":982:1011  signedHash.recover(signature) */\n      swap2\n      swap1\n      0xffffffff\n      and\n      jump\t// in\n    tag_16:\n        /* \"src/TokenEscrow.sol\":965:1011  address signer = signedHash.recover(signature) */\n      swap1\n      pop\n        /* \"src/TokenEscrow.sol\":1039:1045  sender */\n      dup10\n        /* \"src/TokenEscrow.sol\":1029:1045  signer == sender */\n      0xffffffffffffffffffffffffffffffffffffffff\n      and\n        /* \"src/TokenEscrow.sol\":1029:1035  signer */\n      dup2\n        /* \"src/TokenEscrow.sol\":1029:1045  signer == sender */\n      0xffffffffffffffffffffffffffffffffffffffff\n      and\n      eq\n        /* \"src/TokenEscrow.sol\":1021:1067  require(signer == sender, \"Invalid signature\") */\n      tag_18\n      jumpi\n      mload(0x40)\n      0x08c379a000000000000000000000000000000000000000000000000000000000\n      dup2\n      mstore\n      0x04\n      add\n      tag_19\n      swap1\n      tag_20\n      jump\t// in\n    tag_19:\n      mload(0x40)\n      dup1\n      swap2\n      sub\n      swap1\n      revert\n    tag_18:\n        /* \"src/TokenEscrow.sol\":1093:1098  token */\n      dup8\n        /* \"src/TokenEscrow.sol\":1086:1112  IERC20(token).transferFrom */\n      0xffffffffffffffffffffffffffffffffffffffff\n      and\n      0x23b872dd\n        /* \"src/TokenEscrow.sol\":1113:1119  sender */\n      dup12\n        /* \"src/TokenEscrow.sol\":1121:1129  receiver */\n      dup12\n        /* \"src/TokenEscrow.sol\":1131:1137  amount */\n      dup11\n        /* \"src/TokenEscrow.sol\":1086:1138  IERC20(token).transferFrom(sender, receiver, amount) */\n      mload(0x40)\n      dup5\n      0xffffffff\n      and\n      0xe0\n      shl\n      dup2\n      mstore\n      0x04\n      add\n      tag_21\n      swap4\n      swap3\n      swap2\n      swap1\n      tag_22\n      jump\t// in\n    tag_21:\n      0x20\n      mload(0x40)\n      dup1\n      dup4\n      sub\n      dup2\n      0x00\n      dup8\n      gas\n      call\n      iszero\n      dup1\n      iszero\n      tag_24\n      jumpi\n      returndatasize\n      0x00\n      dup1\n      returndatacopy\n      revert(0x00, returndatasize)\n    tag_24:\n      pop\n      pop\n      pop\n      pop\n      mload(0x40)\n      returndatasize\n      not(0x1f)\n      0x1f\n      dup3\n      add\n      and\n      dup3\n      add\n      dup1\n      0x40\n      mstore\n      pop\n      dup2\n      add\n      swap1\n      tag_25\n      swap2\n      swap1\n      tag_26\n      jump\t// in\n    tag_25:\n        /* \"src/TokenEscrow.sol\":1078:1158  require(IERC20(token).transferFrom(sender, receiver, amount), \"Transfer failed\") */\n      tag_27\n      jumpi\n      mload(0x40)\n      0x08c379a000000000000000000000000000000000000000000000000000000000\n      dup2\n      mstore\n      0x04\n      add\n      tag_28\n      swap1\n      tag_29\n      jump\t// in\n    tag_28:\n      mload(0x40)\n      dup1\n      swap2\n      sub\n      swap1\n      revert\n    tag_27:\n        /* \"src/TokenEscrow.sol\":1191:1199  receiver */\n      dup9\n        /* \"src/TokenEscrow.sol\":1174:1215  Withdraw(sender, receiver, token, amount) */\n      0xffffffffffffffffffffffffffffffffffffffff\n      and\n        /* \"src/TokenEscrow.sol\":1183:1189  sender */\n      dup11\n        /* \"src/TokenEscrow.sol\":1174:1215  Withdraw(sender, receiver, token, amount) */\n      0xffffffffffffffffffffffffffffffffffffffff\n      and\n      0x3115d1449a7b732c986cba18244e897a450f61e1bb8d589cd2e69e6c8924f9f7\n        /* \"src/TokenEscrow.sol\":1201:1206  token */\n      dup11\n        /* \"src/TokenEscrow.sol\":1208:1214  amount */\n      dup11\n        /* \"src/TokenEscrow.sol\":1174:1215  Withdraw(sender, receiver, token, amount) */\n      mload(0x40)\n      tag_30\n      swap3\n      swap2\n      swap1\n      tag_31\n      jump\t// in\n    tag_30:\n      mload(0x40)\n      dup1\n      swap2\n      sub\n      swap1\n      log3\n        /* \"src/TokenEscrow.sol\":705:1222  {... */\n      pop\n      pop\n      pop\n        /* \"src/TokenEscrow.sol\":515:1222  function withdraw(... */\n      pop\n      pop\n      pop\n      pop\n      pop\n      pop\n      pop\n      jump\t// out\n        /* \"src/TokenEscrow.sol\":338:509  function toEthSignedMessageHash(bytes32 hash) internal pure returns (bytes32) {... */\n    tag_15:\n        /* \"src/TokenEscrow.sol\":407:414  bytes32 */\n      0x00\n        /* \"src/TokenEscrow.sol\":496:500  hash */\n      dup2\n        /* \"src/TokenEscrow.sol\":443:501  abi.encodePacked(\"\\x19Ethereum Signed Message:\\n32\", hash) */\n      add(0x20, mload(0x40))\n      tag_33\n      swap2\n      swap1\n      tag_34\n      jump\t// in\n    tag_33:\n      mload(0x40)\n      0x20\n      dup2\n      dup4\n      sub\n      sub\n      dup2\n      mstore\n      swap1\n      0x40\n      mstore\n        /* \"src/TokenEscrow.sol\":433:502  keccak256(abi.encodePacked(\"\\x19Ethereum Signed Message:\\n32\", hash)) */\n      dup1\n      mload\n      swap1\n      0x20\n      add\n      keccak256\n        /* \"src/TokenEscrow.sol\":426:502  return keccak256(abi.encodePacked(\"\\x19Ethereum Signed Message:\\n32\", hash)) */\n      swap1\n      pop\n        /* \"src/TokenEscrow.sol\":338:509  function toEthSignedMessageHash(bytes32 hash) internal pure returns (bytes32) {... */\n      swap2\n      swap1\n      pop\n      jump\t// out\n        /* \"lib/openzeppelin-contracts/contracts/utils/cryptography/ECDSA.sol\":3714:3969  function recover(bytes32 hash, bytes memory signature) internal pure returns (address) {... */\n    tag_17:\n        /* \"lib/openzeppelin-contracts/contracts/utils/cryptography/ECDSA.sol\":3792:3799  address */\n      0x00\n        /* \"lib/openzeppelin-contracts/contracts/utils/cryptography/ECDSA.sol\":3812:3829  address recovered */\n      dup1\n        /* \"lib/openzeppelin-contracts/contracts/utils/cryptography/ECDSA.sol\":3831:3849  RecoverError error */\n      0x00\n        /* \"lib/openzeppelin-contracts/contracts/utils/cryptography/ECDSA.sol\":3851:3867  bytes32 errorArg */\n      dup1\n        /* \"lib/openzeppelin-contracts/contracts/utils/cryptography/ECDSA.sol\":3871:3898  tryRecover(hash, signature) */\n      tag_36\n        /* \"lib/openzeppelin-contracts/contracts/utils/cryptography/ECDSA.sol\":3882:3886  hash */\n      dup7\n        /* \"lib/openzeppelin-contracts/contracts/utils/cryptography/ECDSA.sol\":3888:3897  signature */\n      dup7\n        /* \"lib/openzeppelin-contracts/contracts/utils/cryptography/ECDSA.sol\":3871:3881  tryRecover */\n      tag_37\n        /* \"lib/openzeppelin-contracts/contracts/utils/cryptography/ECDSA.sol\":3871:3898  tryRecover(hash, signature) */\n      jump\t// in\n    tag_36:\n        /* \"lib/openzeppelin-contracts/contracts/utils/cryptography/ECDSA.sol\":3811:3898  (address recovered, RecoverError error, bytes32 errorArg) = tryRecover(hash, signature) */\n      swap3\n      pop\n      swap3\n      pop\n      swap3\n      pop\n        /* \"lib/openzeppelin-contracts/contracts/utils/cryptography/ECDSA.sol\":3908:3936  _throwError(error, errorArg) */\n      tag_38\n        /* \"lib/openzeppelin-contracts/contracts/utils/cryptography/ECDSA.sol\":3920:3925  error */\n      dup3\n        /* \"lib/openzeppelin-contracts/contracts/utils/cryptography/ECDSA.sol\":3927:3935  errorArg */\n      dup3\n        /* \"lib/openzeppelin-contracts/contracts/utils/cryptography/ECDSA.sol\":3908:3919  _throwError */\n      tag_39\n        /* \"lib/openzeppelin-contracts/contracts/utils/cryptography/ECDSA.sol\":3908:3936  _throwError(error, errorArg) */\n      jump\t// in\n    tag_38:\n        /* \"lib/openzeppelin-contracts/contracts/utils/cryptography/ECDSA.sol\":3953:3962  recovered */\n      dup3\n        /* \"lib/openzeppelin-contracts/contracts/utils/cryptography/ECDSA.sol\":3946:3962  return recovered */\n      swap4\n      pop\n      pop\n      pop\n      pop\n        /* \"lib/openzeppelin-contracts/contracts/utils/cryptography/ECDSA.sol\":3714:3969  function recover(bytes32 hash, bytes memory signature) internal pure returns (address) {... */\n      swap3\n      swap2\n      pop\n      pop\n      jump\t// out\n        /* \"lib/openzeppelin-contracts/contracts/utils/cryptography/ECDSA.sol\":2129:2907  function tryRecover(... */\n    tag_37:\n        /* \"lib/openzeppelin-contracts/contracts/utils/cryptography/ECDSA.sol\":2232:2249  address recovered */\n      0x00\n        /* \"lib/openzeppelin-contracts/contracts/utils/cryptography/ECDSA.sol\":2251:2267  RecoverError err */\n      dup1\n        /* \"lib/openzeppelin-contracts/contracts/utils/cryptography/ECDSA.sol\":2269:2283  bytes32 errArg */\n      0x00\n        /* \"lib/openzeppelin-contracts/contracts/utils/cryptography/ECDSA.sol\":2319:2321  65 */\n      0x41\n        /* \"lib/openzeppelin-contracts/contracts/utils/cryptography/ECDSA.sol\":2299:2308  signature */\n      dup5\n        /* \"lib/openzeppelin-contracts/contracts/utils/cryptography/ECDSA.sol\":2299:2315  signature.length */\n      mload\n        /* \"lib/openzeppelin-contracts/contracts/utils/cryptography/ECDSA.sol\":2299:2321  signature.length == 65 */\n      sub\n        /* \"lib/openzeppelin-contracts/contracts/utils/cryptography/ECDSA.sol\":2295:2901  if (signature.length == 65) {... */\n      tag_41\n      jumpi\n        /* \"lib/openzeppelin-contracts/contracts/utils/cryptography/ECDSA.sol\":2337:2346  bytes32 r */\n      0x00\n        /* \"lib/openzeppelin-contracts/contracts/utils/cryptography/ECDSA.sol\":2360:2369  bytes32 s */\n      dup1\n        /* \"lib/openzeppelin-contracts/contracts/utils/cryptography/ECDSA.sol\":2383:2390  uint8 v */\n      0x00\n        /* \"lib/openzeppelin-contracts/contracts/utils/cryptography/ECDSA.sol\":2604:2608  0x20 */\n      0x20\n        /* \"lib/openzeppelin-contracts/contracts/utils/cryptography/ECDSA.sol\":2593:2602  signature */\n      dup8\n        /* \"lib/openzeppelin-contracts/contracts/utils/cryptography/ECDSA.sol\":2589:2609  add(signature, 0x20) */\n      add\n        /* \"lib/openzeppelin-contracts/contracts/utils/cryptography/ECDSA.sol\":2583:2610  mload(add(signature, 0x20)) */\n      mload\n        /* \"lib/openzeppelin-contracts/contracts/utils/cryptography/ECDSA.sol\":2578:2610  r := mload(add(signature, 0x20)) */\n      swap3\n      pop\n        /* \"lib/openzeppelin-contracts/contracts/utils/cryptography/ECDSA.sol\":2653:2657  0x40 */\n      0x40\n        /* \"lib/openzeppelin-contracts/contracts/utils/cryptography/ECDSA.sol\":2642:2651  signature */\n      dup8\n        /* \"lib/openzeppelin-contracts/contracts/utils/cryptography/ECDSA.sol\":2638:2658  add(signature, 0x40) */\n      add\n        /* \"lib/openzeppelin-contracts/contracts/utils/cryptography/ECDSA.sol\":2632:2659  mload(add(signature, 0x40)) */\n      mload\n        /* \"lib/openzeppelin-contracts/contracts/utils/cryptography/ECDSA.sol\":2627:2659  s := mload(add(signature, 0x40)) */\n      swap2\n      pop\n        /* \"lib/openzeppelin-contracts/contracts/utils/cryptography/ECDSA.sol\":2710:2714  0x60 */\n      0x60\n        /* \"lib/openzeppelin-contracts/contracts/utils/cryptography/ECDSA.sol\":2699:2708  signature */\n      dup8\n        /* \"lib/openzeppelin-contracts/contracts/utils/cryptography/ECDSA.sol\":2695:2715  add(signature, 0x60) */\n      add\n        /* \"lib/openzeppelin-contracts/contracts/utils/cryptography/ECDSA.sol\":2689:2716  mload(add(signature, 0x60)) */\n      mload\n        /* \"lib/openzeppelin-contracts/contracts/utils/cryptography/ECDSA.sol\":2686:2687  0 */\n      0x00\n        /* \"lib/openzeppelin-contracts/contracts/utils/cryptography/ECDSA.sol\":2681:2717  byte(0, mload(add(signature, 0x60))) */\n      byte\n        /* \"lib/openzeppelin-contracts/contracts/utils/cryptography/ECDSA.sol\":2676:2717  v := byte(0, mload(add(signature, 0x60))) */\n      swap1\n      pop\n        /* \"lib/openzeppelin-contracts/contracts/utils/cryptography/ECDSA.sol\":2751:2776  tryRecover(hash, v, r, s) */\n      tag_42\n        /* \"lib/openzeppelin-contracts/contracts/utils/cryptography/ECDSA.sol\":2762:2766  hash */\n      dup9\n        /* \"lib/openzeppelin-contracts/contracts/utils/cryptography/ECDSA.sol\":2768:2769  v */\n      dup3\n        /* \"lib/openzeppelin-contracts/contracts/utils/cryptography/ECDSA.sol\":2771:2772  r */\n      dup6\n        /* \"lib/openzeppelin-contracts/contracts/utils/cryptography/ECDSA.sol\":2774:2775  s */\n      dup6\n        /* \"lib/openzeppelin-contracts/contracts/utils/cryptography/ECDSA.sol\":2751:2761  tryRecover */\n      tag_43\n        /* \"lib/openzeppelin-contracts/contracts/utils/cryptography/ECDSA.sol\":2751:2776  tryRecover(hash, v, r, s) */\n      jump\t// in\n    tag_42:\n        /* \"lib/openzeppelin-contracts/contracts/utils/cryptography/ECDSA.sol\":2744:2776  return tryRecover(hash, v, r, s) */\n      swap6\n      pop\n      swap6\n      pop\n      swap6\n      pop\n      pop\n      pop\n      pop\n      jump(tag_40)\n        /* \"lib/openzeppelin-contracts/contracts/utils/cryptography/ECDSA.sol\":2295:2901  if (signature.length == 65) {... */\n    tag_41:\n        /* \"lib/openzeppelin-contracts/contracts/utils/cryptography/ECDSA.sol\":2823:2824  0 */\n      0x00\n        /* \"lib/openzeppelin-contracts/contracts/utils/cryptography/ECDSA.sol\":2827:2862  RecoverError.InvalidSignatureLength */\n      0x02\n        /* \"lib/openzeppelin-contracts/contracts/utils/cryptography/ECDSA.sol\":2872:2881  signature */\n      dup6\n        /* \"lib/openzeppelin-contracts/contracts/utils/cryptography/ECDSA.sol\":2872:2888  signature.length */\n      mload\n        /* \"lib/openzeppelin-contracts/contracts/utils/cryptography/ECDSA.sol\":2864:2889  bytes32(signature.length) */\n      0x00\n      shl\n        /* \"lib/openzeppelin-contracts/contracts/utils/cryptography/ECDSA.sol\":2807:2890  return (address(0), RecoverError.InvalidSignatureLength, bytes32(signature.length)) */\n      swap3\n      pop\n      swap3\n      pop\n      swap3\n      pop\n        /* \"lib/openzeppelin-contracts/contracts/utils/cryptography/ECDSA.sol\":2129:2907  function tryRecover(... */\n    tag_40:\n      swap3\n      pop\n      swap3\n      pop\n      swap3\n      jump\t// out\n        /* \"lib/openzeppelin-contracts/contracts/utils/cryptography/ECDSA.sol\":7280:7812  function _throwError(RecoverError error, bytes32 errorArg) private pure {... */\n    tag_39:\n        /* \"lib/openzeppelin-contracts/contracts/utils/cryptography/ECDSA.sol\":7375:7395  RecoverError.NoError */\n      0x00\n        /* \"lib/openzeppelin-contracts/contracts/utils/cryptography/ECDSA.sol\":7366:7395  error == RecoverError.NoError */\n      0x03\n      dup2\n      gt\n      iszero\n      tag_46\n      jumpi\n      tag_47\n      tag_48\n      jump\t// in\n    tag_47:\n    tag_46:\n        /* \"lib/openzeppelin-contracts/contracts/utils/cryptography/ECDSA.sol\":7366:7371  error */\n      dup3\n        /* \"lib/openzeppelin-contracts/contracts/utils/cryptography/ECDSA.sol\":7366:7395  error == RecoverError.NoError */\n      0x03\n      dup2\n      gt\n      iszero\n      tag_49\n      jumpi\n      tag_50\n      tag_48\n      jump\t// in\n    tag_50:\n    tag_49:\n      sub\n        /* \"lib/openzeppelin-contracts/contracts/utils/cryptography/ECDSA.sol\":7362:7806  if (error == RecoverError.NoError) {... */\n      iszero\n        /* \"lib/openzeppelin-contracts/contracts/utils/cryptography/ECDSA.sol\":7411:7418  return; */\n      tag_45\n        /* \"lib/openzeppelin-contracts/contracts/utils/cryptography/ECDSA.sol\":7362:7806  if (error == RecoverError.NoError) {... */\n      jumpi\n        /* \"lib/openzeppelin-contracts/contracts/utils/cryptography/ECDSA.sol\":7471:7500  RecoverError.InvalidSignature */\n      0x01\n        /* \"lib/openzeppelin-contracts/contracts/utils/cryptography/ECDSA.sol\":7462:7500  error == RecoverError.InvalidSignature */\n      0x03\n      dup2\n      gt\n      iszero\n      tag_53\n      jumpi\n      tag_54\n      tag_48\n      jump\t// in\n    tag_54:\n    tag_53:\n        /* \"lib/openzeppelin-contracts/contracts/utils/cryptography/ECDSA.sol\":7462:7467  error */\n      dup3\n        /* \"lib/openzeppelin-contracts/contracts/utils/cryptography/ECDSA.sol\":7462:7500  error == RecoverError.InvalidSignature */\n      0x03\n      dup2\n      gt\n      iszero\n      tag_55\n      jumpi\n      tag_56\n      tag_48\n      jump\t// in\n    tag_56:\n    tag_55:\n      sub\n        /* \"lib/openzeppelin-contracts/contracts/utils/cryptography/ECDSA.sol\":7458:7806  if (error == RecoverError.InvalidSignature) {... */\n      tag_57\n      jumpi\n        /* \"lib/openzeppelin-contracts/contracts/utils/cryptography/ECDSA.sol\":7523:7546  ECDSAInvalidSignature() */\n      mload(0x40)\n      0xf645eedf00000000000000000000000000000000000000000000000000000000\n      dup2\n      mstore\n      0x04\n      add\n      mload(0x40)\n      dup1\n      swap2\n      sub\n      swap1\n      revert\n        /* \"lib/openzeppelin-contracts/contracts/utils/cryptography/ECDSA.sol\":7458:7806  if (error == RecoverError.InvalidSignature) {... */\n    tag_57:\n        /* \"lib/openzeppelin-contracts/contracts/utils/cryptography/ECDSA.sol\":7576:7611  RecoverError.InvalidSignatureLength */\n      0x02\n        /* \"lib/openzeppelin-contracts/contracts/utils/cryptography/ECDSA.sol\":7567:7611  error == RecoverError.InvalidSignatureLength */\n      0x03\n      dup2\n      gt\n      iszero\n      tag_59\n      jumpi\n      tag_60\n      tag_48\n      jump\t// in\n    tag_60:\n    tag_59:\n        /* \"lib/openzeppelin-contracts/contracts/utils/cryptography/ECDSA.sol\":7567:7572  error */\n      dup3\n        /* \"lib/openzeppelin-contracts/contracts/utils/cryptography/ECDSA.sol\":7567:7611  error == RecoverError.InvalidSignatureLength */\n      0x03\n      dup2\n      gt\n      iszero\n      tag_61\n      jumpi\n      tag_62\n      tag_48\n      jump\t// in\n    tag_62:\n    tag_61:\n      sub\n        /* \"lib/openzeppelin-contracts/contracts/utils/cryptography/ECDSA.sol\":7563:7806  if (error == RecoverError.InvalidSignatureLength) {... */\n      tag_63\n      jumpi\n        /* \"lib/openzeppelin-contracts/contracts/utils/cryptography/ECDSA.sol\":7670:7678  errorArg */\n      dup1\n        /* \"lib/openzeppelin-contracts/contracts/utils/cryptography/ECDSA.sol\":7662:7679  uint256(errorArg) */\n      0x00\n      shr\n        /* \"lib/openzeppelin-contracts/contracts/utils/cryptography/ECDSA.sol\":7634:7680  ECDSAInvalidSignatureLength(uint256(errorArg)) */\n      mload(0x40)\n      0xfce698f700000000000000000000000000000000000000000000000000000000\n      dup2\n      mstore\n      0x04\n      add\n      tag_64\n      swap2\n      swap1\n      tag_65\n      jump\t// in\n    tag_64:\n      mload(0x40)\n      dup1\n      swap2\n      sub\n      swap1\n      revert\n        /* \"lib/openzeppelin-contracts/contracts/utils/cryptography/ECDSA.sol\":7563:7806  if (error == RecoverError.InvalidSignatureLength) {... */\n    tag_63:\n        /* \"lib/openzeppelin-contracts/contracts/utils/cryptography/ECDSA.sol\":7710:7740  RecoverError.InvalidSignatureS */\n      0x03\n        /* \"lib/openzeppelin-contracts/contracts/utils/cryptography/ECDSA.sol\":7701:7740  error == RecoverError.InvalidSignatureS */\n      dup1\n      dup2\n      gt\n      iszero\n      tag_67\n      jumpi\n      tag_68\n      tag_48\n      jump\t// in\n    tag_68:\n    tag_67:\n        /* \"lib/openzeppelin-contracts/contracts/utils/cryptography/ECDSA.sol\":7701:7706  error */\n      dup3\n        /* \"lib/openzeppelin-contracts/contracts/utils/cryptography/ECDSA.sol\":7701:7740  error == RecoverError.InvalidSignatureS */\n      0x03\n      dup2\n      gt\n      iszero\n      tag_69\n      jumpi\n      tag_70\n      tag_48\n      jump\t// in\n    tag_70:\n    tag_69:\n      sub\n        /* \"lib/openzeppelin-contracts/contracts/utils/cryptography/ECDSA.sol\":7697:7806  if (error == RecoverError.InvalidSignatureS) {... */\n      tag_71\n      jumpi\n        /* \"lib/openzeppelin-contracts/contracts/utils/cryptography/ECDSA.sol\":7786:7794  errorArg */\n      dup1\n        /* \"lib/openzeppelin-contracts/contracts/utils/cryptography/ECDSA.sol\":7763:7795  ECDSAInvalidSignatureS(errorArg) */\n      mload(0x40)\n      0xd78bce0c00000000000000000000000000000000000000000000000000000000\n      dup2\n      mstore\n      0x04\n      add\n      tag_72\n      swap2\n      swap1\n      tag_73\n      jump\t// in\n    tag_72:\n      mload(0x40)\n      dup1\n      swap2\n      sub\n      swap1\n      revert\n        /* \"lib/openzeppelin-contracts/contracts/utils/cryptography/ECDSA.sol\":7697:7806  if (error == RecoverError.InvalidSignatureS) {... */\n    tag_71:\n        /* \"lib/openzeppelin-contracts/contracts/utils/cryptography/ECDSA.sol\":7280:7812  function _throwError(RecoverError error, bytes32 errorArg) private pure {... */\n    tag_45:\n      pop\n      pop\n      jump\t// out\n        /* \"lib/openzeppelin-contracts/contracts/utils/cryptography/ECDSA.sol\":5203:6754  function tryRecover(... */\n    tag_43:\n        /* \"lib/openzeppelin-contracts/contracts/utils/cryptography/ECDSA.sol\":5329:5346  address recovered */\n      0x00\n        /* \"lib/openzeppelin-contracts/contracts/utils/cryptography/ECDSA.sol\":5348:5364  RecoverError err */\n      dup1\n        /* \"lib/openzeppelin-contracts/contracts/utils/cryptography/ECDSA.sol\":5366:5380  bytes32 errArg */\n      0x00\n        /* \"lib/openzeppelin-contracts/contracts/utils/cryptography/ECDSA.sol\":6283:6349  0x7FFFFFFFFFFFFFFFFFFFFFFFFFFFFFFF5D576E7357A4501DDFE92F46681B20A0 */\n      0x7fffffffffffffffffffffffffffffff5d576e7357a4501ddfe92f46681b20a0\n        /* \"lib/openzeppelin-contracts/contracts/utils/cryptography/ECDSA.sol\":6278:6279  s */\n      dup5\n        /* \"lib/openzeppelin-contracts/contracts/utils/cryptography/ECDSA.sol\":6270:6280  uint256(s) */\n      0x00\n      shr\n        /* \"lib/openzeppelin-contracts/contracts/utils/cryptography/ECDSA.sol\":6270:6349  uint256(s) > 0x7FFFFFFFFFFFFFFFFFFFFFFFFFFFFFFF5D576E7357A4501DDFE92F46681B20A0 */\n      gt\n        /* \"lib/openzeppelin-contracts/contracts/utils/cryptography/ECDSA.sol\":6266:6430  if (uint256(s) > 0x7FFFFFFFFFFFFFFFFFFFFFFFFFFFFFFF5D576E7357A4501DDFE92F46681B20A0) {... */\n      iszero\n      tag_75\n      jumpi\n        /* \"lib/openzeppelin-contracts/contracts/utils/cryptography/ECDSA.sol\":6381:6382  0 */\n      0x00\n        /* \"lib/openzeppelin-contracts/contracts/utils/cryptography/ECDSA.sol\":6385:6415  RecoverError.InvalidSignatureS */\n      0x03\n        /* \"lib/openzeppelin-contracts/contracts/utils/cryptography/ECDSA.sol\":6417:6418  s */\n      dup6\n        /* \"lib/openzeppelin-contracts/contracts/utils/cryptography/ECDSA.sol\":6365:6419  return (address(0), RecoverError.InvalidSignatureS, s) */\n      swap3\n      pop\n      swap3\n      pop\n      swap3\n      pop\n      jump(tag_74)\n        /* \"lib/openzeppelin-contracts/contracts/utils/cryptography/ECDSA.sol\":6266:6430  if (uint256(s) > 0x7FFFFFFFFFFFFFFFFFFFFFFFFFFFFFFF5D576E7357A4501DDFE92F46681B20A0) {... */\n    tag_75:\n        /* \"lib/openzeppelin-contracts/contracts/utils/cryptography/ECDSA.sol\":6524:6538  address signer */\n      0x00\n        /* \"lib/openzeppelin-contracts/contracts/utils/cryptography/ECDSA.sol\":6541:6565  ecrecover(hash, v, r, s) */\n      0x01\n        /* \"lib/openzeppelin-contracts/contracts/utils/cryptography/ECDSA.sol\":6551:6555  hash */\n      dup9\n        /* \"lib/openzeppelin-contracts/contracts/utils/cryptography/ECDSA.sol\":6557:6558  v */\n      dup9\n        /* \"lib/openzeppelin-contracts/contracts/utils/cryptography/ECDSA.sol\":6560:6561  r */\n      dup9\n        /* \"lib/openzeppelin-contracts/contracts/utils/cryptography/ECDSA.sol\":6563:6564  s */\n      dup9\n        /* \"lib/openzeppelin-contracts/contracts/utils/cryptography/ECDSA.sol\":6541:6565  ecrecover(hash, v, r, s) */\n      mload(0x40)\n      0x00\n      dup2\n      mstore\n      0x20\n      add\n      0x40\n      mstore\n      mload(0x40)\n      tag_76\n      swap5\n      swap4\n      swap3\n      swap2\n      swap1\n      tag_77\n      jump\t// in\n    tag_76:\n      0x20\n      mload(0x40)\n      0x20\n      dup2\n      sub\n      swap1\n      dup1\n      dup5\n      sub\n      swap1\n      dup6\n      gas\n      staticcall\n      iszero\n      dup1\n      iszero\n      tag_79\n      jumpi\n      returndatasize\n      0x00\n      dup1\n      returndatacopy\n      revert(0x00, returndatasize)\n    tag_79:\n      pop\n      pop\n      pop\n      mload(sub(mload(0x40), 0x20))\n        /* \"lib/openzeppelin-contracts/contracts/utils/cryptography/ECDSA.sol\":6524:6565  address signer = ecrecover(hash, v, r, s) */\n      swap1\n      pop\n        /* \"lib/openzeppelin-contracts/contracts/utils/cryptography/ECDSA.sol\":6597:6598  0 */\n      0x00\n        /* \"lib/openzeppelin-contracts/contracts/utils/cryptography/ECDSA.sol\":6579:6599  signer == address(0) */\n      0xffffffffffffffffffffffffffffffffffffffff\n      and\n        /* \"lib/openzeppelin-contracts/contracts/utils/cryptography/ECDSA.sol\":6579:6585  signer */\n      dup2\n        /* \"lib/openzeppelin-contracts/contracts/utils/cryptography/ECDSA.sol\":6579:6599  signer == address(0) */\n      0xffffffffffffffffffffffffffffffffffffffff\n      and\n      sub\n        /* \"lib/openzeppelin-contracts/contracts/utils/cryptography/ECDSA.sol\":6575:6688  if (signer == address(0)) {... */\n      tag_80\n      jumpi\n        /* \"lib/openzeppelin-contracts/contracts/utils/cryptography/ECDSA.sol\":6631:6632  0 */\n      0x00\n        /* \"lib/openzeppelin-contracts/contracts/utils/cryptography/ECDSA.sol\":6635:6664  RecoverError.InvalidSignature */\n      0x01\n        /* \"lib/openzeppelin-contracts/contracts/utils/cryptography/ECDSA.sol\":6674:6675  0 */\n      0x00\n        /* \"lib/openzeppelin-contracts/contracts/utils/cryptography/ECDSA.sol\":6666:6676  bytes32(0) */\n      dup1\n      shl\n        /* \"lib/openzeppelin-contracts/contracts/utils/cryptography/ECDSA.sol\":6615:6677  return (address(0), RecoverError.InvalidSignature, bytes32(0)) */\n      swap4\n      pop\n      swap4\n      pop\n      swap4\n      pop\n      pop\n      jump(tag_74)\n        /* \"lib/openzeppelin-contracts/contracts/utils/cryptography/ECDSA.sol\":6575:6688  if (signer == address(0)) {... */\n    tag_80:\n        /* \"lib/openzeppelin-contracts/contracts/utils/cryptography/ECDSA.sol\":6706:6712  signer */\n      dup1\n        /* \"lib/openzeppelin-contracts/contracts/utils/cryptography/ECDSA.sol\":6714:6734  RecoverError.NoError */\n      0x00\n        /* \"lib/openzeppelin-contracts/contracts/utils/cryptography/ECDSA.sol\":6744:6745  0 */\n      dup1\n        /* \"lib/openzeppelin-contracts/contracts/utils/cryptography/ECDSA.sol\":6736:6746  bytes32(0) */\n      0x00\n      shl\n        /* \"lib/openzeppelin-contracts/contracts/utils/cryptography/ECDSA.sol\":6698:6747  return (signer, RecoverError.NoError, bytes32(0)) */\n      swap4\n      pop\n      swap4\n      pop\n      swap4\n      pop\n      pop\n        /* \"lib/openzeppelin-contracts/contracts/utils/cryptography/ECDSA.sol\":5203:6754  function tryRecover(... */\n    tag_74:\n      swap5\n      pop\n      swap5\n      pop\n      swap5\n      swap2\n      pop\n      pop\n      jump\t// out\n        /* \"#utility.yul\":88:205   */\n    tag_82:\n        /* \"#utility.yul\":197:198   */\n      0x00\n        /* \"#utility.yul\":194:195   */\n      dup1\n        /* \"#utility.yul\":187:199   */\n      revert\n        /* \"#utility.yul\":211:328   */\n    tag_83:\n        /* \"#utility.yul\":320:321   */\n      0x00\n        /* \"#utility.yul\":317:318   */\n      dup1\n        /* \"#utility.yul\":310:322   */\n      revert\n        /* \"#utility.yul\":334:460   */\n    tag_84:\n        /* \"#utility.yul\":371:378   */\n      0x00\n        /* \"#utility.yul\":411:453   */\n      0xffffffffffffffffffffffffffffffffffffffff\n        /* \"#utility.yul\":404:409   */\n      dup3\n        /* \"#utility.yul\":400:454   */\n      and\n        /* \"#utility.yul\":389:454   */\n      swap1\n      pop\n        /* \"#utility.yul\":334:460   */\n      swap2\n      swap1\n      pop\n      jump\t// out\n        /* \"#utility.yul\":466:562   */\n    tag_85:\n        /* \"#utility.yul\":503:510   */\n      0x00\n        /* \"#utility.yul\":532:556   */\n      tag_128\n        /* \"#utility.yul\":550:555   */\n      dup3\n        /* \"#utility.yul\":532:556   */\n      tag_84\n      jump\t// in\n    tag_128:\n        /* \"#utility.yul\":521:556   */\n      swap1\n      pop\n        /* \"#utility.yul\":466:562   */\n      swap2\n      swap1\n      pop\n      jump\t// out\n        /* \"#utility.yul\":568:690   */\n    tag_86:\n        /* \"#utility.yul\":641:665   */\n      tag_130\n        /* \"#utility.yul\":659:664   */\n      dup2\n        /* \"#utility.yul\":641:665   */\n      tag_85\n      jump\t// in\n    tag_130:\n        /* \"#utility.yul\":634:639   */\n      dup2\n        /* \"#utility.yul\":631:666   */\n      eq\n        /* \"#utility.yul\":621:684   */\n      tag_131\n      jumpi\n        /* \"#utility.yul\":680:681   */\n      0x00\n        /* \"#utility.yul\":677:678   */\n      dup1\n        /* \"#utility.yul\":670:682   */\n      revert\n        /* \"#utility.yul\":621:684   */\n    tag_131:\n        /* \"#utility.yul\":568:690   */\n      pop\n      jump\t// out\n        /* \"#utility.yul\":696:835   */\n    tag_87:\n        /* \"#utility.yul\":742:747   */\n      0x00\n        /* \"#utility.yul\":780:786   */\n      dup2\n        /* \"#utility.yul\":767:787   */\n      calldataload\n        /* \"#utility.yul\":758:787   */\n      swap1\n      pop\n        /* \"#utility.yul\":796:829   */\n      tag_133\n        /* \"#utility.yul\":823:828   */\n      dup2\n        /* \"#utility.yul\":796:829   */\n      tag_86\n      jump\t// in\n    tag_133:\n        /* \"#utility.yul\":696:835   */\n      swap3\n      swap2\n      pop\n      pop\n      jump\t// out\n        /* \"#utility.yul\":841:918   */\n    tag_88:\n        /* \"#utility.yul\":878:885   */\n      0x00\n        /* \"#utility.yul\":907:912   */\n      dup2\n        /* \"#utility.yul\":896:912   */\n      swap1\n      pop\n        /* \"#utility.yul\":841:918   */\n      swap2\n      swap1\n      pop\n      jump\t// out\n        /* \"#utility.yul\":924:1046   */\n    tag_89:\n        /* \"#utility.yul\":997:1021   */\n      tag_136\n        /* \"#utility.yul\":1015:1020   */\n      dup2\n        /* \"#utility.yul\":997:1021   */\n      tag_88\n      jump\t// in\n    tag_136:\n        /* \"#utility.yul\":990:995   */\n      dup2\n        /* \"#utility.yul\":987:1022   */\n      eq\n        /* \"#utility.yul\":977:1040   */\n      tag_137\n      jumpi\n        /* \"#utility.yul\":1036:1037   */\n      0x00\n        /* \"#utility.yul\":1033:1034   */\n      dup1\n        /* \"#utility.yul\":1026:1038   */\n      revert\n        /* \"#utility.yul\":977:1040   */\n    tag_137:\n        /* \"#utility.yul\":924:1046   */\n      pop\n      jump\t// out\n        /* \"#utility.yul\":1052:1191   */\n    tag_90:\n        /* \"#utility.yul\":1098:1103   */\n      0x00\n        /* \"#utility.yul\":1136:1142   */\n      dup2\n        /* \"#utility.yul\":1123:1143   */\n      calldataload\n        /* \"#utility.yul\":1114:1143   */\n      swap1\n      pop\n        /* \"#utility.yul\":1152:1185   */\n      tag_139\n        /* \"#utility.yul\":1179:1184   */\n      dup2\n        /* \"#utility.yul\":1152:1185   */\n      tag_89\n      jump\t// in\n    tag_139:\n        /* \"#utility.yul\":1052:1191   */\n      swap3\n      swap2\n      pop\n      pop\n      jump\t// out\n        /* \"#utility.yul\":1197:1314   */\n    tag_91:\n        /* \"#utility.yul\":1306:1307   */\n      0x00\n        /* \"#utility.yul\":1303:1304   */\n      dup1\n        /* \"#utility.yul\":1296:1308   */\n      revert\n        /* \"#utility.yul\":1320:1437   */\n    tag_92:\n        /* \"#utility.yul\":1429:1430   */\n      0x00\n        /* \"#utility.yul\":1426:1427   */\n      dup1\n        /* \"#utility.yul\":1419:1431   */\n      revert\n        /* \"#utility.yul\":1443:1560   */\n    tag_93:\n        /* \"#utility.yul\":1552:1553   */\n      0x00\n        /* \"#utility.yul\":1549:1550   */\n      dup1\n        /* \"#utility.yul\":1542:1554   */\n      revert\n        /* \"#utility.yul\":1579:2131   */\n    tag_94:\n        /* \"#utility.yul\":1636:1644   */\n      0x00\n        /* \"#utility.yul\":1646:1652   */\n      dup1\n        /* \"#utility.yul\":1696:1699   */\n      dup4\n        /* \"#utility.yul\":1689:1693   */\n      0x1f\n        /* \"#utility.yul\":1681:1687   */\n      dup5\n        /* \"#utility.yul\":1677:1694   */\n      add\n        /* \"#utility.yul\":1673:1700   */\n      slt\n        /* \"#utility.yul\":1663:1785   */\n      tag_144\n      jumpi\n        /* \"#utility.yul\":1704:1783   */\n      tag_145\n      tag_91\n      jump\t// in\n    tag_145:\n        /* \"#utility.yul\":1663:1785   */\n    tag_144:\n        /* \"#utility.yul\":1817:1823   */\n      dup3\n        /* \"#utility.yul\":1804:1824   */\n      calldataload\n        /* \"#utility.yul\":1794:1824   */\n      swap1\n      pop\n        /* \"#utility.yul\":1847:1865   */\n      0xffffffffffffffff\n        /* \"#utility.yul\":1839:1845   */\n      dup2\n        /* \"#utility.yul\":1836:1866   */\n      gt\n        /* \"#utility.yul\":1833:1950   */\n      iszero\n      tag_146\n      jumpi\n        /* \"#utility.yul\":1869:1948   */\n      tag_147\n      tag_92\n      jump\t// in\n    tag_147:\n        /* \"#utility.yul\":1833:1950   */\n    tag_146:\n        /* \"#utility.yul\":1983:1987   */\n      0x20\n        /* \"#utility.yul\":1975:1981   */\n      dup4\n        /* \"#utility.yul\":1971:1988   */\n      add\n        /* \"#utility.yul\":1959:1988   */\n      swap2\n      pop\n        /* \"#utility.yul\":2037:2040   */\n      dup4\n        /* \"#utility.yul\":2029:2033   */\n      0x01\n        /* \"#utility.yul\":2021:2027   */\n      dup3\n        /* \"#utility.yul\":2017:2034   */\n      mul\n        /* \"#utility.yul\":2007:2015   */\n      dup4\n        /* \"#utility.yul\":2003:2035   */\n      add\n        /* \"#utility.yul\":2000:2041   */\n      gt\n        /* \"#utility.yul\":1997:2125   */\n      iszero\n      tag_148\n      jumpi\n        /* \"#utility.yul\":2044:2123   */\n      tag_149\n      tag_93\n      jump\t// in\n    tag_149:\n        /* \"#utility.yul\":1997:2125   */\n    tag_148:\n        /* \"#utility.yul\":1579:2131   */\n      swap3\n      pop\n      swap3\n      swap1\n      pop\n      jump\t// out\n        /* \"#utility.yul\":2137:3392   */\n    tag_6:\n        /* \"#utility.yul\":2252:2258   */\n      0x00\n        /* \"#utility.yul\":2260:2266   */\n      dup1\n        /* \"#utility.yul\":2268:2274   */\n      0x00\n        /* \"#utility.yul\":2276:2282   */\n      dup1\n        /* \"#utility.yul\":2284:2290   */\n      0x00\n        /* \"#utility.yul\":2292:2298   */\n      dup1\n        /* \"#utility.yul\":2300:2306   */\n      0x00\n        /* \"#utility.yul\":2349:2352   */\n      0xc0\n        /* \"#utility.yul\":2337:2346   */\n      dup9\n        /* \"#utility.yul\":2328:2335   */\n      dup11\n        /* \"#utility.yul\":2324:2347   */\n      sub\n        /* \"#utility.yul\":2320:2353   */\n      slt\n        /* \"#utility.yul\":2317:2437   */\n      iszero\n      tag_151\n      jumpi\n        /* \"#utility.yul\":2356:2435   */\n      tag_152\n      tag_82\n      jump\t// in\n    tag_152:\n        /* \"#utility.yul\":2317:2437   */\n    tag_151:\n        /* \"#utility.yul\":2476:2477   */\n      0x00\n        /* \"#utility.yul\":2501:2554   */\n      tag_153\n        /* \"#utility.yul\":2546:2553   */\n      dup11\n        /* \"#utility.yul\":2537:2543   */\n      dup3\n        /* \"#utility.yul\":2526:2535   */\n      dup12\n        /* \"#utility.yul\":2522:2544   */\n      add\n        /* \"#utility.yul\":2501:2554   */\n      tag_87\n      jump\t// in\n    tag_153:\n        /* \"#utility.yul\":2491:2554   */\n      swap8\n      pop\n        /* \"#utility.yul\":2447:2564   */\n      pop\n        /* \"#utility.yul\":2603:2605   */\n      0x20\n        /* \"#utility.yul\":2629:2682   */\n      tag_154\n        /* \"#utility.yul\":2674:2681   */\n      dup11\n        /* \"#utility.yul\":2665:2671   */\n      dup3\n        /* \"#utility.yul\":2654:2663   */\n      dup12\n        /* \"#utility.yul\":2650:2672   */\n      add\n        /* \"#utility.yul\":2629:2682   */\n      tag_87\n      jump\t// in\n    tag_154:\n        /* \"#utility.yul\":2619:2682   */\n      swap7\n      pop\n        /* \"#utility.yul\":2574:2692   */\n      pop\n        /* \"#utility.yul\":2731:2733   */\n      0x40\n        /* \"#utility.yul\":2757:2810   */\n      tag_155\n        /* \"#utility.yul\":2802:2809   */\n      dup11\n        /* \"#utility.yul\":2793:2799   */\n      dup3\n        /* \"#utility.yul\":2782:2791   */\n      dup12\n        /* \"#utility.yul\":2778:2800   */\n      add\n        /* \"#utility.yul\":2757:2810   */\n      tag_87\n      jump\t// in\n    tag_155:\n        /* \"#utility.yul\":2747:2810   */\n      swap6\n      pop\n        /* \"#utility.yul\":2702:2820   */\n      pop\n        /* \"#utility.yul\":2859:2861   */\n      0x60\n        /* \"#utility.yul\":2885:2938   */\n      tag_156\n        /* \"#utility.yul\":2930:2937   */\n      dup11\n        /* \"#utility.yul\":2921:2927   */\n      dup3\n        /* \"#utility.yul\":2910:2919   */\n      dup12\n        /* \"#utility.yul\":2906:2928   */\n      add\n        /* \"#utility.yul\":2885:2938   */\n      tag_90\n      jump\t// in\n    tag_156:\n        /* \"#utility.yul\":2875:2938   */\n      swap5\n      pop\n        /* \"#utility.yul\":2830:2948   */\n      pop\n        /* \"#utility.yul\":2987:2990   */\n      0x80\n        /* \"#utility.yul\":3014:3067   */\n      tag_157\n        /* \"#utility.yul\":3059:3066   */\n      dup11\n        /* \"#utility.yul\":3050:3056   */\n      dup3\n        /* \"#utility.yul\":3039:3048   */\n      dup12\n        /* \"#utility.yul\":3035:3057   */\n      add\n        /* \"#utility.yul\":3014:3067   */\n      tag_90\n      jump\t// in\n    tag_157:\n        /* \"#utility.yul\":3004:3067   */\n      swap4\n      pop\n        /* \"#utility.yul\":2958:3077   */\n      pop\n        /* \"#utility.yul\":3144:3147   */\n      0xa0\n        /* \"#utility.yul\":3133:3142   */\n      dup9\n        /* \"#utility.yul\":3129:3148   */\n      add\n        /* \"#utility.yul\":3116:3149   */\n      calldataload\n        /* \"#utility.yul\":3176:3194   */\n      0xffffffffffffffff\n        /* \"#utility.yul\":3168:3174   */\n      dup2\n        /* \"#utility.yul\":3165:3195   */\n      gt\n        /* \"#utility.yul\":3162:3279   */\n      iszero\n      tag_158\n      jumpi\n        /* \"#utility.yul\":3198:3277   */\n      tag_159\n      tag_83\n      jump\t// in\n    tag_159:\n        /* \"#utility.yul\":3162:3279   */\n    tag_158:\n        /* \"#utility.yul\":3311:3375   */\n      tag_160\n        /* \"#utility.yul\":3367:3374   */\n      dup11\n        /* \"#utility.yul\":3358:3364   */\n      dup3\n        /* \"#utility.yul\":3347:3356   */\n      dup12\n        /* \"#utility.yul\":3343:3365   */\n      add\n        /* \"#utility.yul\":3311:3375   */\n      tag_94\n      jump\t// in\n    tag_160:\n        /* \"#utility.yul\":3293:3375   */\n      swap3\n      pop\n      swap3\n      pop\n        /* \"#utility.yul\":3087:3385   */\n      pop\n        /* \"#utility.yul\":2137:3392   */\n      swap3\n      swap6\n      swap9\n      swap2\n      swap5\n      swap8\n      pop\n      swap3\n      swap6\n      pop\n      jump\t// out\n        /* \"#utility.yul\":3398:3567   */\n    tag_95:\n        /* \"#utility.yul\":3482:3493   */\n      0x00\n        /* \"#utility.yul\":3516:3522   */\n      dup3\n        /* \"#utility.yul\":3511:3514   */\n      dup3\n        /* \"#utility.yul\":3504:3523   */\n      mstore\n        /* \"#utility.yul\":3556:3560   */\n      0x20\n        /* \"#utility.yul\":3551:3554   */\n      dup3\n        /* \"#utility.yul\":3547:3561   */\n      add\n        /* \"#utility.yul\":3532:3561   */\n      swap1\n      pop\n        /* \"#utility.yul\":3398:3567   */\n      swap3\n      swap2\n      pop\n      pop\n      jump\t// out\n        /* \"#utility.yul\":3573:3730   */\n    tag_96:\n        /* \"#utility.yul\":3713:3722   */\n      0x4578706972656400000000000000000000000000000000000000000000000000\n        /* \"#utility.yul\":3709:3710   */\n      0x00\n        /* \"#utility.yul\":3701:3707   */\n      dup3\n        /* \"#utility.yul\":3697:3711   */\n      add\n        /* \"#utility.yul\":3690:3723   */\n      mstore\n        /* \"#utility.yul\":3573:3730   */\n      pop\n      jump\t// out\n        /* \"#utility.yul\":3736:4101   */\n    tag_97:\n        /* \"#utility.yul\":3878:3881   */\n      0x00\n        /* \"#utility.yul\":3899:3965   */\n      tag_164\n        /* \"#utility.yul\":3963:3964   */\n      0x07\n        /* \"#utility.yul\":3958:3961   */\n      dup4\n        /* \"#utility.yul\":3899:3965   */\n      tag_95\n      jump\t// in\n    tag_164:\n        /* \"#utility.yul\":3892:3965   */\n      swap2\n      pop\n        /* \"#utility.yul\":3974:4067   */\n      tag_165\n        /* \"#utility.yul\":4063:4066   */\n      dup3\n        /* \"#utility.yul\":3974:4067   */\n      tag_96\n      jump\t// in\n    tag_165:\n        /* \"#utility.yul\":4092:4094   */\n      0x20\n        /* \"#utility.yul\":4087:4090   */\n      dup3\n        /* \"#utility.yul\":4083:4095   */\n      add\n        /* \"#utility.yul\":4076:4095   */\n      swap1\n      pop\n        /* \"#utility.yul\":3736:4101   */\n      swap2\n      swap1\n      pop\n      jump\t// out\n        /* \"#utility.yul\":4107:4526   */\n    tag_11:\n        /* \"#utility.yul\":4273:4277   */\n      0x00\n        /* \"#utility.yul\":4311:4313   */\n      0x20\n        /* \"#utility.yul\":4300:4309   */\n      dup3\n        /* \"#utility.yul\":4296:4314   */\n      add\n        /* \"#utility.yul\":4288:4314   */\n      swap1\n      pop\n        /* \"#utility.yul\":4360:4369   */\n      dup2\n        /* \"#utility.yul\":4354:4358   */\n      dup2\n        /* \"#utility.yul\":4350:4370   */\n      sub\n        /* \"#utility.yul\":4346:4347   */\n      0x00\n        /* \"#utility.yul\":4335:4344   */\n      dup4\n        /* \"#utility.yul\":4331:4348   */\n      add\n        /* \"#utility.yul\":4324:4371   */\n      mstore\n        /* \"#utility.yul\":4388:4519   */\n      tag_167\n        /* \"#utility.yul\":4514:4518   */\n      dup2\n        /* \"#utility.yul\":4388:4519   */\n      tag_97\n      jump\t// in\n    tag_167:\n        /* \"#utility.yul\":4380:4519   */\n      swap1\n      pop\n        /* \"#utility.yul\":4107:4526   */\n      swap2\n      swap1\n      pop\n      jump\t// out\n        /* \"#utility.yul\":4532:4626   */\n    tag_98:\n        /* \"#utility.yul\":4565:4573   */\n      0x00\n        /* \"#utility.yul\":4613:4618   */\n      dup2\n        /* \"#utility.yul\":4609:4611   */\n      0x60\n        /* \"#utility.yul\":4605:4619   */\n      shl\n        /* \"#utility.yul\":4584:4619   */\n      swap1\n      pop\n        /* \"#utility.yul\":4532:4626   */\n      swap2\n      swap1\n      pop\n      jump\t// out\n        /* \"#utility.yul\":4632:4726   */\n    tag_99:\n        /* \"#utility.yul\":4671:4678   */\n      0x00\n        /* \"#utility.yul\":4700:4720   */\n      tag_170\n        /* \"#utility.yul\":4714:4719   */\n      dup3\n        /* \"#utility.yul\":4700:4720   */\n      tag_98\n      jump\t// in\n    tag_170:\n        /* \"#utility.yul\":4689:4720   */\n      swap1\n      pop\n        /* \"#utility.yul\":4632:4726   */\n      swap2\n      swap1\n      pop\n      jump\t// out\n        /* \"#utility.yul\":4732:4832   */\n    tag_100:\n        /* \"#utility.yul\":4771:4778   */\n      0x00\n        /* \"#utility.yul\":4800:4826   */\n      tag_172\n        /* \"#utility.yul\":4820:4825   */\n      dup3\n        /* \"#utility.yul\":4800:4826   */\n      tag_99\n      jump\t// in\n    tag_172:\n        /* \"#utility.yul\":4789:4826   */\n      swap1\n      pop\n        /* \"#utility.yul\":4732:4832   */\n      swap2\n      swap1\n      pop\n      jump\t// out\n        /* \"#utility.yul\":4838:4995   */\n    tag_101:\n        /* \"#utility.yul\":4943:4988   */\n      tag_174\n        /* \"#utility.yul\":4963:4987   */\n      tag_175\n        /* \"#utility.yul\":4981:4986   */\n      dup3\n        /* \"#utility.yul\":4963:4987   */\n      tag_85\n      jump\t// in\n    tag_175:\n        /* \"#utility.yul\":4943:4988   */\n      tag_100\n      jump\t// in\n    tag_174:\n        /* \"#utility.yul\":4938:4941   */\n      dup3\n        /* \"#utility.yul\":4931:4989   */\n      mstore\n        /* \"#utility.yul\":4838:4995   */\n      pop\n      pop\n      jump\t// out\n        /* \"#utility.yul\":5001:5080   */\n    tag_102:\n        /* \"#utility.yul\":5040:5047   */\n      0x00\n        /* \"#utility.yul\":5069:5074   */\n      dup2\n        /* \"#utility.yul\":5058:5074   */\n      swap1\n      pop\n        /* \"#utility.yul\":5001:5080   */\n      swap2\n      swap1\n      pop\n      jump\t// out\n        /* \"#utility.yul\":5086:5243   */\n    tag_103:\n        /* \"#utility.yul\":5191:5236   */\n      tag_178\n        /* \"#utility.yul\":5211:5235   */\n      tag_179\n        /* \"#utility.yul\":5229:5234   */\n      dup3\n        /* \"#utility.yul\":5211:5235   */\n      tag_88\n      jump\t// in\n    tag_179:\n        /* \"#utility.yul\":5191:5236   */\n      tag_102\n      jump\t// in\n    tag_178:\n        /* \"#utility.yul\":5186:5189   */\n      dup3\n        /* \"#utility.yul\":5179:5237   */\n      mstore\n        /* \"#utility.yul\":5086:5243   */\n      pop\n      pop\n      jump\t// out\n        /* \"#utility.yul\":5249:6210   */\n    tag_13:\n        /* \"#utility.yul\":5501:5504   */\n      0x00\n        /* \"#utility.yul\":5516:5591   */\n      tag_181\n        /* \"#utility.yul\":5587:5590   */\n      dup3\n        /* \"#utility.yul\":5578:5584   */\n      dup10\n        /* \"#utility.yul\":5516:5591   */\n      tag_101\n      jump\t// in\n    tag_181:\n        /* \"#utility.yul\":5616:5618   */\n      0x14\n        /* \"#utility.yul\":5611:5614   */\n      dup3\n        /* \"#utility.yul\":5607:5619   */\n      add\n        /* \"#utility.yul\":5600:5619   */\n      swap2\n      pop\n        /* \"#utility.yul\":5629:5704   */\n      tag_182\n        /* \"#utility.yul\":5700:5703   */\n      dup3\n        /* \"#utility.yul\":5691:5697   */\n      dup9\n        /* \"#utility.yul\":5629:5704   */\n      tag_101\n      jump\t// in\n    tag_182:\n        /* \"#utility.yul\":5729:5731   */\n      0x14\n        /* \"#utility.yul\":5724:5727   */\n      dup3\n        /* \"#utility.yul\":5720:5732   */\n      add\n        /* \"#utility.yul\":5713:5732   */\n      swap2\n      pop\n        /* \"#utility.yul\":5742:5817   */\n      tag_183\n        /* \"#utility.yul\":5813:5816   */\n      dup3\n        /* \"#utility.yul\":5804:5810   */\n      dup8\n        /* \"#utility.yul\":5742:5817   */\n      tag_101\n      jump\t// in\n    tag_183:\n        /* \"#utility.yul\":5842:5844   */\n      0x14\n        /* \"#utility.yul\":5837:5840   */\n      dup3\n        /* \"#utility.yul\":5833:5845   */\n      add\n        /* \"#utility.yul\":5826:5845   */\n      swap2\n      pop\n        /* \"#utility.yul\":5855:5930   */\n      tag_184\n        /* \"#utility.yul\":5926:5929   */\n      dup3\n        /* \"#utility.yul\":5917:5923   */\n      dup7\n        /* \"#utility.yul\":5855:5930   */\n      tag_103\n      jump\t// in\n    tag_184:\n        /* \"#utility.yul\":5955:5957   */\n      0x20\n        /* \"#utility.yul\":5950:5953   */\n      dup3\n        /* \"#utility.yul\":5946:5958   */\n      add\n        /* \"#utility.yul\":5939:5958   */\n      swap2\n      pop\n        /* \"#utility.yul\":5968:6043   */\n      tag_185\n        /* \"#utility.yul\":6039:6042   */\n      dup3\n        /* \"#utility.yul\":6030:6036   */\n      dup6\n        /* \"#utility.yul\":5968:6043   */\n      tag_103\n      jump\t// in\n    tag_185:\n        /* \"#utility.yul\":6068:6070   */\n      0x20\n        /* \"#utility.yul\":6063:6066   */\n      dup3\n        /* \"#utility.yul\":6059:6071   */\n      add\n        /* \"#utility.yul\":6052:6071   */\n      swap2\n      pop\n        /* \"#utility.yul\":6081:6156   */\n      tag_186\n        /* \"#utility.yul\":6152:6155   */\n      dup3\n        /* \"#utility.yul\":6143:6149   */\n      dup5\n        /* \"#utility.yul\":6081:6156   */\n      tag_101\n      jump\t// in\n    tag_186:\n        /* \"#utility.yul\":6181:6183   */\n      0x14\n        /* \"#utility.yul\":6176:6179   */\n      dup3\n        /* \"#utility.yul\":6172:6184   */\n      add\n        /* \"#utility.yul\":6165:6184   */\n      swap2\n      pop\n        /* \"#utility.yul\":6201:6204   */\n      dup2\n        /* \"#utility.yul\":6194:6204   */\n      swap1\n      pop\n        /* \"#utility.yul\":5249:6210   */\n      swap8\n      swap7\n      pop\n      pop\n      pop\n      pop\n      pop\n      pop\n      pop\n      jump\t// out\n        /* \"#utility.yul\":6216:6383   */\n    tag_104:\n        /* \"#utility.yul\":6356:6375   */\n      0x496e76616c6964207369676e6174757265000000000000000000000000000000\n        /* \"#utility.yul\":6352:6353   */\n      0x00\n        /* \"#utility.yul\":6344:6350   */\n      dup3\n        /* \"#utility.yul\":6340:6354   */\n      add\n        /* \"#utility.yul\":6333:6376   */\n      mstore\n        /* \"#utility.yul\":6216:6383   */\n      pop\n      jump\t// out\n        /* \"#utility.yul\":6389:6755   */\n    tag_105:\n        /* \"#utility.yul\":6531:6534   */\n      0x00\n        /* \"#utility.yul\":6552:6619   */\n      tag_189\n        /* \"#utility.yul\":6616:6618   */\n      0x11\n        /* \"#utility.yul\":6611:6614   */\n      dup4\n        /* \"#utility.yul\":6552:6619   */\n      tag_95\n      jump\t// in\n    tag_189:\n        /* \"#utility.yul\":6545:6619   */\n      swap2\n      pop\n        /* \"#utility.yul\":6628:6721   */\n      tag_190\n        /* \"#utility.yul\":6717:6720   */\n      dup3\n        /* \"#utility.yul\":6628:6721   */\n      tag_104\n      jump\t// in\n    tag_190:\n        /* \"#utility.yul\":6746:6748   */\n      0x20\n        /* \"#utility.yul\":6741:6744   */\n      dup3\n        /* \"#utility.yul\":6737:6749   */\n      add\n        /* \"#utility.yul\":6730:6749   */\n      swap1\n      pop\n        /* \"#utility.yul\":6389:6755   */\n      swap2\n      swap1\n      pop\n      jump\t// out\n        /* \"#utility.yul\":6761:7180   */\n    tag_20:\n        /* \"#utility.yul\":6927:6931   */\n      0x00\n        /* \"#utility.yul\":6965:6967   */\n      0x20\n        /* \"#utility.yul\":6954:6963   */\n      dup3\n        /* \"#utility.yul\":6950:6968   */\n      add\n        /* \"#utility.yul\":6942:6968   */\n      swap1\n      pop\n        /* \"#utility.yul\":7014:7023   */\n      dup2\n        /* \"#utility.yul\":7008:7012   */\n      dup2\n        /* \"#utility.yul\":7004:7024   */\n      sub\n        /* \"#utility.yul\":7000:7001   */\n      0x00\n        /* \"#utility.yul\":6989:6998   */\n      dup4\n        /* \"#utility.yul\":6985:7002   */\n      add\n        /* \"#utility.yul\":6978:7025   */\n      mstore\n        /* \"#utility.yul\":7042:7173   */\n      tag_192\n        /* \"#utility.yul\":7168:7172   */\n      dup2\n        /* \"#utility.yul\":7042:7173   */\n      tag_105\n      jump\t// in\n    tag_192:\n        /* \"#utility.yul\":7034:7173   */\n      swap1\n      pop\n        /* \"#utility.yul\":6761:7180   */\n      swap2\n      swap1\n      pop\n      jump\t// out\n        /* \"#utility.yul\":7186:7304   */\n    tag_106:\n        /* \"#utility.yul\":7273:7297   */\n      tag_194\n        /* \"#utility.yul\":7291:7296   */\n      dup2\n        /* \"#utility.yul\":7273:7297   */\n      tag_85\n      jump\t// in\n    tag_194:\n        /* \"#utility.yul\":7268:7271   */\n      dup3\n        /* \"#utility.yul\":7261:7298   */\n      mstore\n        /* \"#utility.yul\":7186:7304   */\n      pop\n      pop\n      jump\t// out\n        /* \"#utility.yul\":7310:7428   */\n    tag_107:\n        /* \"#utility.yul\":7397:7421   */\n      tag_196\n        /* \"#utility.yul\":7415:7420   */\n      dup2\n        /* \"#utility.yul\":7397:7421   */\n      tag_88\n      jump\t// in\n    tag_196:\n        /* \"#utility.yul\":7392:7395   */\n      dup3\n        /* \"#utility.yul\":7385:7422   */\n      mstore\n        /* \"#utility.yul\":7310:7428   */\n      pop\n      pop\n      jump\t// out\n        /* \"#utility.yul\":7434:7876   */\n    tag_22:\n        /* \"#utility.yul\":7583:7587   */\n      0x00\n        /* \"#utility.yul\":7621:7623   */\n      0x60\n        /* \"#utility.yul\":7610:7619   */\n      dup3\n        /* \"#utility.yul\":7606:7624   */\n      add\n        /* \"#utility.yul\":7598:7624   */\n      swap1\n      pop\n        /* \"#utility.yul\":7634:7705   */\n      tag_198\n        /* \"#utility.yul\":7702:7703   */\n      0x00\n        /* \"#utility.yul\":7691:7700   */\n      dup4\n        /* \"#utility.yul\":7687:7704   */\n      add\n        /* \"#utility.yul\":7678:7684   */\n      dup7\n        /* \"#utility.yul\":7634:7705   */\n      tag_106\n      jump\t// in\n    tag_198:\n        /* \"#utility.yul\":7715:7787   */\n      tag_199\n        /* \"#utility.yul\":7783:7785   */\n      0x20\n        /* \"#utility.yul\":7772:7781   */\n      dup4\n        /* \"#utility.yul\":7768:7786   */\n      add\n        /* \"#utility.yul\":7759:7765   */\n      dup6\n        /* \"#utility.yul\":7715:7787   */\n      tag_106\n      jump\t// in\n    tag_199:\n        /* \"#utility.yul\":7797:7869   */\n      tag_200\n        /* \"#utility.yul\":7865:7867   */\n      0x40\n        /* \"#utility.yul\":7854:7863   */\n      dup4\n        /* \"#utility.yul\":7850:7868   */\n      add\n        /* \"#utility.yul\":7841:7847   */\n      dup5\n        /* \"#utility.yul\":7797:7869   */\n      tag_107\n      jump\t// in\n    tag_200:\n        /* \"#utility.yul\":7434:7876   */\n      swap5\n      swap4\n      pop\n      pop\n      pop\n      pop\n      jump\t// out\n        /* \"#utility.yul\":7882:7972   */\n    tag_108:\n        /* \"#utility.yul\":7916:7923   */\n      0x00\n        /* \"#utility.yul\":7959:7964   */\n      dup2\n        /* \"#utility.yul\":7952:7965   */\n      iszero\n        /* \"#utility.yul\":7945:7966   */\n      iszero\n        /* \"#utility.yul\":7934:7966   */\n      swap1\n      pop\n        /* \"#utility.yul\":7882:7972   */\n      swap2\n      swap1\n      pop\n      jump\t// out\n        /* \"#utility.yul\":7978:8094   */\n    tag_109:\n        /* \"#utility.yul\":8048:8069   */\n      tag_203\n        /* \"#utility.yul\":8063:8068   */\n      dup2\n        /* \"#utility.yul\":8048:8069   */\n      tag_108\n      jump\t// in\n    tag_203:\n        /* \"#utility.yul\":8041:8046   */\n      dup2\n        /* \"#utility.yul\":8038:8070   */\n      eq\n        /* \"#utility.yul\":8028:8088   */\n      tag_204\n      jumpi\n        /* \"#utility.yul\":8084:8085   */\n      0x00\n        /* \"#utility.yul\":8081:8082   */\n      dup1\n        /* \"#utility.yul\":8074:8086   */\n      revert\n        /* \"#utility.yul\":8028:8088   */\n    tag_204:\n        /* \"#utility.yul\":7978:8094   */\n      pop\n      jump\t// out\n        /* \"#utility.yul\":8100:8237   */\n    tag_110:\n        /* \"#utility.yul\":8154:8159   */\n      0x00\n        /* \"#utility.yul\":8185:8191   */\n      dup2\n        /* \"#utility.yul\":8179:8192   */\n      mload\n        /* \"#utility.yul\":8170:8192   */\n      swap1\n      pop\n        /* \"#utility.yul\":8201:8231   */\n      tag_206\n        /* \"#utility.yul\":8225:8230   */\n      dup2\n        /* \"#utility.yul\":8201:8231   */\n      tag_109\n      jump\t// in\n    tag_206:\n        /* \"#utility.yul\":8100:8237   */\n      swap3\n      swap2\n      pop\n      pop\n      jump\t// out\n        /* \"#utility.yul\":8243:8588   */\n    tag_26:\n        /* \"#utility.yul\":8310:8316   */\n      0x00\n        /* \"#utility.yul\":8359:8361   */\n      0x20\n        /* \"#utility.yul\":8347:8356   */\n      dup3\n        /* \"#utility.yul\":8338:8345   */\n      dup5\n        /* \"#utility.yul\":8334:8357   */\n      sub\n        /* \"#utility.yul\":8330:8362   */\n      slt\n        /* \"#utility.yul\":8327:8446   */\n      iszero\n      tag_208\n      jumpi\n        /* \"#utility.yul\":8365:8444   */\n      tag_209\n      tag_82\n      jump\t// in\n    tag_209:\n        /* \"#utility.yul\":8327:8446   */\n    tag_208:\n        /* \"#utility.yul\":8485:8486   */\n      0x00\n        /* \"#utility.yul\":8510:8571   */\n      tag_210\n        /* \"#utility.yul\":8563:8570   */\n      dup5\n        /* \"#utility.yul\":8554:8560   */\n      dup3\n        /* \"#utility.yul\":8543:8552   */\n      dup6\n        /* \"#utility.yul\":8539:8561   */\n      add\n        /* \"#utility.yul\":8510:8571   */\n      tag_110\n      jump\t// in\n    tag_210:\n        /* \"#utility.yul\":8500:8571   */\n      swap2\n      pop\n        /* \"#utility.yul\":8456:8581   */\n      pop\n        /* \"#utility.yul\":8243:8588   */\n      swap3\n      swap2\n      pop\n      pop\n      jump\t// out\n        /* \"#utility.yul\":8594:8759   */\n    tag_111:\n        /* \"#utility.yul\":8734:8751   */\n      0x5472616e73666572206661696c65640000000000000000000000000000000000\n        /* \"#utility.yul\":8730:8731   */\n      0x00\n        /* \"#utility.yul\":8722:8728   */\n      dup3\n        /* \"#utility.yul\":8718:8732   */\n      add\n        /* \"#utility.yul\":8711:8752   */\n      mstore\n        /* \"#utility.yul\":8594:8759   */\n      pop\n      jump\t// out\n        /* \"#utility.yul\":8765:9131   */\n    tag_112:\n        /* \"#utility.yul\":8907:8910   */\n      0x00\n        /* \"#utility.yul\":8928:8995   */\n      tag_213\n        /* \"#utility.yul\":8992:8994   */\n      0x0f\n        /* \"#utility.yul\":8987:8990   */\n      dup4\n        /* \"#utility.yul\":8928:8995   */\n      tag_95\n      jump\t// in\n    tag_213:\n        /* \"#utility.yul\":8921:8995   */\n      swap2\n      pop\n        /* \"#utility.yul\":9004:9097   */\n      tag_214\n        /* \"#utility.yul\":9093:9096   */\n      dup3\n        /* \"#utility.yul\":9004:9097   */\n      tag_111\n      jump\t// in\n    tag_214:\n        /* \"#utility.yul\":9122:9124   */\n      0x20\n        /* \"#utility.yul\":9117:9120   */\n      dup3\n        /* \"#utility.yul\":9113:9125   */\n      add\n        /* \"#utility.yul\":9106:9125   */\n      swap1\n      pop\n        /* \"#utility.yul\":8765:9131   */\n      swap2\n      swap1\n      pop\n      jump\t// out\n        /* \"#utility.yul\":9137:9556   */\n    tag_29:\n        /* \"#utility.yul\":9303:9307   */\n      0x00\n        /* \"#utility.yul\":9341:9343   */\n      0x20\n        /* \"#utility.yul\":9330:9339   */\n      dup3\n        /* \"#utility.yul\":9326:9344   */\n      add\n        /* \"#utility.yul\":9318:9344   */\n      swap1\n      pop\n        /* \"#utility.yul\":9390:9399   */\n      dup2\n        /* \"#utility.yul\":9384:9388   */\n      dup2\n        /* \"#utility.yul\":9380:9400   */\n      sub\n        /* \"#utility.yul\":9376:9377   */\n      0x00\n        /* \"#utility.yul\":9365:9374   */\n      dup4\n        /* \"#utility.yul\":9361:9378   */\n      add\n        /* \"#utility.yul\":9354:9401   */\n      mstore\n        /* \"#utility.yul\":9418:9549   */\n      tag_216\n        /* \"#utility.yul\":9544:9548   */\n      dup2\n        /* \"#utility.yul\":9418:9549   */\n      tag_112\n      jump\t// in\n    tag_216:\n        /* \"#utility.yul\":9410:9549   */\n      swap1\n      pop\n        /* \"#utility.yul\":9137:9556   */\n      swap2\n      swap1\n      pop\n      jump\t// out\n        /* \"#utility.yul\":9562:9894   */\n    tag_31:\n        /* \"#utility.yul\":9683:9687   */\n      0x00\n        /* \"#utility.yul\":9721:9723   */\n      0x40\n        /* \"#utility.yul\":9710:9719   */\n      dup3\n        /* \"#utility.yul\":9706:9724   */\n      add\n        /* \"#utility.yul\":9698:9724   */\n      swap1\n      pop\n        /* \"#utility.yul\":9734:9805   */\n      tag_218\n        /* \"#utility.yul\":9802:9803   */\n      0x00\n        /* \"#utility.yul\":9791:9800   */\n      dup4\n        /* \"#utility.yul\":9787:9804   */\n      add\n        /* \"#utility.yul\":9778:9784   */\n      dup6\n        /* \"#utility.yul\":9734:9805   */\n      tag_106\n      jump\t// in\n    tag_218:\n        /* \"#utility.yul\":9815:9887   */\n      tag_219\n        /* \"#utility.yul\":9883:9885   */\n      0x20\n        /* \"#utility.yul\":9872:9881   */\n      dup4\n        /* \"#utility.yul\":9868:9886   */\n      add\n        /* \"#utility.yul\":9859:9865   */\n      dup5\n        /* \"#utility.yul\":9815:9887   */\n      tag_107\n      jump\t// in\n    tag_219:\n        /* \"#utility.yul\":9562:9894   */\n      swap4\n      swap3\n      pop\n      pop\n      pop\n      jump\t// out\n        /* \"#utility.yul\":9900:10048   */\n    tag_113:\n        /* \"#utility.yul\":10002:10013   */\n      0x00\n        /* \"#utility.yul\":10039:10042   */\n      dup2\n        /* \"#utility.yul\":10024:10042   */\n      swap1\n      pop\n        /* \"#utility.yul\":9900:10048   */\n      swap3\n      swap2\n      pop\n      pop\n      jump\t// out\n        /* \"#utility.yul\":10054:10268   */\n    tag_114:\n        /* \"#utility.yul\":10194:10260   */\n      0x19457468657265756d205369676e6564204d6573736167653a0a333200000000\n        /* \"#utility.yul\":10190:10191   */\n      0x00\n        /* \"#utility.yul\":10182:10188   */\n      dup3\n        /* \"#utility.yul\":10178:10192   */\n      add\n        /* \"#utility.yul\":10171:10261   */\n      mstore\n        /* \"#utility.yul\":10054:10268   */\n      pop\n      jump\t// out\n        /* \"#utility.yul\":10274:10676   */\n    tag_115:\n        /* \"#utility.yul\":10434:10437   */\n      0x00\n        /* \"#utility.yul\":10455:10540   */\n      tag_223\n        /* \"#utility.yul\":10537:10539   */\n      0x1c\n        /* \"#utility.yul\":10532:10535   */\n      dup4\n        /* \"#utility.yul\":10455:10540   */\n      tag_113\n      jump\t// in\n    tag_223:\n        /* \"#utility.yul\":10448:10540   */\n      swap2\n      pop\n        /* \"#utility.yul\":10549:10642   */\n      tag_224\n        /* \"#utility.yul\":10638:10641   */\n      dup3\n        /* \"#utility.yul\":10549:10642   */\n      tag_114\n      jump\t// in\n    tag_224:\n        /* \"#utility.yul\":10667:10669   */\n      0x1c\n        /* \"#utility.yul\":10662:10665   */\n      dup3\n        /* \"#utility.yul\":10658:10670   */\n      add\n        /* \"#utility.yul\":10651:10670   */\n      swap1\n      pop\n        /* \"#utility.yul\":10274:10676   */\n      swap2\n      swap1\n      pop\n      jump\t// out\n        /* \"#utility.yul\":10682:10759   */\n    tag_116:\n        /* \"#utility.yul\":10719:10726   */\n      0x00\n        /* \"#utility.yul\":10748:10753   */\n      dup2\n        /* \"#utility.yul\":10737:10753   */\n      swap1\n      pop\n        /* \"#utility.yul\":10682:10759   */\n      swap2\n      swap1\n      pop\n      jump\t// out\n        /* \"#utility.yul\":10765:10844   */\n    tag_117:\n        /* \"#utility.yul\":10804:10811   */\n      0x00\n        /* \"#utility.yul\":10833:10838   */\n      dup2\n        /* \"#utility.yul\":10822:10838   */\n      swap1\n      pop\n        /* \"#utility.yul\":10765:10844   */\n      swap2\n      swap1\n      pop\n      jump\t// out\n        /* \"#utility.yul\":10850:11007   */\n    tag_118:\n        /* \"#utility.yul\":10955:11000   */\n      tag_228\n        /* \"#utility.yul\":10975:10999   */\n      tag_229\n        /* \"#utility.yul\":10993:10998   */\n      dup3\n        /* \"#utility.yul\":10975:10999   */\n      tag_116\n      jump\t// in\n    tag_229:\n        /* \"#utility.yul\":10955:11000   */\n      tag_117\n      jump\t// in\n    tag_228:\n        /* \"#utility.yul\":10950:10953   */\n      dup3\n        /* \"#utility.yul\":10943:11001   */\n      mstore\n        /* \"#utility.yul\":10850:11007   */\n      pop\n      pop\n      jump\t// out\n        /* \"#utility.yul\":11013:11535   */\n    tag_34:\n        /* \"#utility.yul\":11226:11229   */\n      0x00\n        /* \"#utility.yul\":11248:11396   */\n      tag_231\n        /* \"#utility.yul\":11392:11395   */\n      dup3\n        /* \"#utility.yul\":11248:11396   */\n      tag_115\n      jump\t// in\n    tag_231:\n        /* \"#utility.yul\":11241:11396   */\n      swap2\n      pop\n        /* \"#utility.yul\":11406:11481   */\n      tag_232\n        /* \"#utility.yul\":11477:11480   */\n      dup3\n        /* \"#utility.yul\":11468:11474   */\n      dup5\n        /* \"#utility.yul\":11406:11481   */\n      tag_118\n      jump\t// in\n    tag_232:\n        /* \"#utility.yul\":11506:11508   */\n      0x20\n        /* \"#utility.yul\":11501:11504   */\n      dup3\n        /* \"#utility.yul\":11497:11509   */\n      add\n        /* \"#utility.yul\":11490:11509   */\n      swap2\n      pop\n        /* \"#utility.yul\":11526:11529   */\n      dup2\n        /* \"#utility.yul\":11519:11529   */\n      swap1\n      pop\n        /* \"#utility.yul\":11013:11535   */\n      swap3\n      swap2\n      pop\n      pop\n      jump\t// out\n        /* \"#utility.yul\":11541:11721   */\n    tag_48:\n        /* \"#utility.yul\":11589:11666   */\n      0x4e487b7100000000000000000000000000000000000000000000000000000000\n        /* \"#utility.yul\":11586:11587   */\n      0x00\n        /* \"#utility.yul\":11579:11667   */\n      mstore\n        /* \"#utility.yul\":11686:11690   */\n      0x21\n        /* \"#utility.yul\":11683:11684   */\n      0x04\n        /* \"#utility.yul\":11676:11691   */\n      mstore\n        /* \"#utility.yul\":11710:11714   */\n      0x24\n        /* \"#utility.yul\":11707:11708   */\n      0x00\n        /* \"#utility.yul\":11700:11715   */\n      revert\n        /* \"#utility.yul\":11727:11949   */\n    tag_65:\n        /* \"#utility.yul\":11820:11824   */\n      0x00\n        /* \"#utility.yul\":11858:11860   */\n      0x20\n        /* \"#utility.yul\":11847:11856   */\n      dup3\n        /* \"#utility.yul\":11843:11861   */\n      add\n        /* \"#utility.yul\":11835:11861   */\n      swap1\n      pop\n        /* \"#utility.yul\":11871:11942   */\n      tag_235\n        /* \"#utility.yul\":11939:11940   */\n      0x00\n        /* \"#utility.yul\":11928:11937   */\n      dup4\n        /* \"#utility.yul\":11924:11941   */\n      add\n        /* \"#utility.yul\":11915:11921   */\n      dup5\n        /* \"#utility.yul\":11871:11942   */\n      tag_107\n      jump\t// in\n    tag_235:\n        /* \"#utility.yul\":11727:11949   */\n      swap3\n      swap2\n      pop\n      pop\n      jump\t// out\n        /* \"#utility.yul\":11955:12073   */\n    tag_119:\n        /* \"#utility.yul\":12042:12066   */\n      tag_237\n        /* \"#utility.yul\":12060:12065   */\n      dup2\n        /* \"#utility.yul\":12042:12066   */\n      tag_116\n      jump\t// in\n    tag_237:\n        /* \"#utility.yul\":12037:12040   */\n      dup3\n        /* \"#utility.yul\":12030:12067   */\n      mstore\n        /* \"#utility.yul\":11955:12073   */\n      pop\n      pop\n      jump\t// out\n        /* \"#utility.yul\":12079:12301   */\n    tag_73:\n        /* \"#utility.yul\":12172:12176   */\n      0x00\n        /* \"#utility.yul\":12210:12212   */\n      0x20\n        /* \"#utility.yul\":12199:12208   */\n      dup3\n        /* \"#utility.yul\":12195:12213   */\n      add\n        /* \"#utility.yul\":12187:12213   */\n      swap1\n      pop\n        /* \"#utility.yul\":12223:12294   */\n      tag_239\n        /* \"#utility.yul\":12291:12292   */\n      0x00\n        /* \"#utility.yul\":12280:12289   */\n      dup4\n        /* \"#utility.yul\":12276:12293   */\n      add\n        /* \"#utility.yul\":12267:12273   */\n      dup5\n        /* \"#utility.yul\":12223:12294   */\n      tag_119\n      jump\t// in\n    tag_239:\n        /* \"#utility.yul\":12079:12301   */\n      swap3\n      swap2\n      pop\n      pop\n      jump\t// out\n        /* \"#utility.yul\":12307:12393   */\n    tag_120:\n        /* \"#utility.yul\":12342:12349   */\n      0x00\n        /* \"#utility.yul\":12382:12386   */\n      0xff\n        /* \"#utility.yul\":12375:12380   */\n      dup3\n        /* \"#utility.yul\":12371:12387   */\n      and\n        /* \"#utility.yul\":12360:12387   */\n      swap1\n      pop\n        /* \"#utility.yul\":12307:12393   */\n      swap2\n      swap1\n      pop\n      jump\t// out\n        /* \"#utility.yul\":12399:12511   */\n    tag_121:\n        /* \"#utility.yul\":12482:12504   */\n      tag_242\n        /* \"#utility.yul\":12498:12503   */\n      dup2\n        /* \"#utility.yul\":12482:12504   */\n      tag_120\n      jump\t// in\n    tag_242:\n        /* \"#utility.yul\":12477:12480   */\n      dup3\n        /* \"#utility.yul\":12470:12505   */\n      mstore\n        /* \"#utility.yul\":12399:12511   */\n      pop\n      pop\n      jump\t// out\n        /* \"#utility.yul\":12517:13062   */\n    tag_77:\n        /* \"#utility.yul\":12690:12694   */\n      0x00\n        /* \"#utility.yul\":12728:12731   */\n      0x80\n        /* \"#utility.yul\":12717:12726   */\n      dup3\n        /* \"#utility.yul\":12713:12732   */\n      add\n        /* \"#utility.yul\":12705:12732   */\n      swap1\n      pop\n        /* \"#utility.yul\":12742:12813   */\n      tag_244\n        /* \"#utility.yul\":12810:12811   */\n      0x00\n        /* \"#utility.yul\":12799:12808   */\n      dup4\n        /* \"#utility.yul\":12795:12812   */\n      add\n        /* \"#utility.yul\":12786:12792   */\n      dup8\n        /* \"#utility.yul\":12742:12813   */\n      tag_119\n      jump\t// in\n    tag_244:\n        /* \"#utility.yul\":12823:12891   */\n      tag_245\n        /* \"#utility.yul\":12887:12889   */\n      0x20\n        /* \"#utility.yul\":12876:12885   */\n      dup4\n        /* \"#utility.yul\":12872:12890   */\n      add\n        /* \"#utility.yul\":12863:12869   */\n      dup7\n        /* \"#utility.yul\":12823:12891   */\n      tag_121\n      jump\t// in\n    tag_245:\n        /* \"#utility.yul\":12901:12973   */\n      tag_246\n        /* \"#utility.yul\":12969:12971   */\n      0x40\n        /* \"#utility.yul\":12958:12967   */\n      dup4\n        /* \"#utility.yul\":12954:12972   */\n      add\n        /* \"#utility.yul\":12945:12951   */\n      dup6\n        /* \"#utility.yul\":12901:12973   */\n      tag_119\n      jump\t// in\n    tag_246:\n        /* \"#utility.yul\":12983:13055   */\n      tag_247\n        /* \"#utility.yul\":13051:13053   */\n      0x60\n        /* \"#utility.yul\":13040:13049   */\n      dup4\n        /* \"#utility.yul\":13036:13054   */\n      add\n        /* \"#utility.yul\":13027:13033   */\n      dup5\n        /* \"#utility.yul\":12983:13055   */\n      tag_119\n      jump\t// in\n    tag_247:\n        /* \"#utility.yul\":12517:13062   */\n      swap6\n      swap5\n      pop\n      pop\n      pop\n      pop\n      pop\n      jump\t// out\n\n    auxdata: 0xa2646970667358221220e09d6e7df81c4ecc3d2f6b6f171ae6dac115b6f299d8405c977cc20e73b9a02d64736f6c63430008140033\n}\n",
				"bytecode": {
					"linkReferences": {},
					"object": "608060405234801561000f575f80fd5b50610bf38061001d5f395ff3fe608060405234801561000f575f80fd5b5060043610610029575f3560e01c80638c2b3ef71461002d575b5f80fd5b610047600480360381019061004291906106af565b610049565b005b8242111561008c576040517f08c379a0000000000000000000000000000000000000000000000000000000008152600401610083906107b3565b60405180910390fd5b5f8787878787306040516020016100a896959493929190610836565b6040516020818303038152906040528051906020012090505f6100ca826102c2565b90505f61012385858080601f0160208091040260200160405190810160405280939291908181526020018383808284375f81840152601f19601f82011690508083019250505050505050836102f190919063ffffffff16565b90508973ffffffffffffffffffffffffffffffffffffffff168173ffffffffffffffffffffffffffffffffffffffff1614610193576040517f08c379a000000000000000000000000000000000000000000000000000000000815260040161018a906108ef565b60405180910390fd5b8773ffffffffffffffffffffffffffffffffffffffff166323b872dd8b8b8a6040518463ffffffff1660e01b81526004016101d09392919061092b565b6020604051808303815f875af11580156101ec573d5f803e3d5ffd5b505050506040513d601f19601f820116820180604052508101906102109190610995565b61024f576040517f08c379a000000000000000000000000000000000000000000000000000000000815260040161024690610a0a565b60405180910390fd5b8873ffffffffffffffffffffffffffffffffffffffff168a73ffffffffffffffffffffffffffffffffffffffff167f3115d1449a7b732c986cba18244e897a450f61e1bb8d589cd2e69e6c8924f9f78a8a6040516102ae929190610a28565b60405180910390a350505050505050505050565b5f816040516020016102d49190610acc565b604051602081830303815290604052805190602001209050919050565b5f805f806102ff868661031b565b92509250925061030f8282610370565b82935050505092915050565b5f805f604184510361035b575f805f602087015192506040870151915060608701515f1a905061034d888285856104d2565b955095509550505050610369565b5f600285515f1b9250925092505b9250925092565b5f600381111561038357610382610af1565b5b82600381111561039657610395610af1565b5b03156104ce57600160038111156103b0576103af610af1565b5b8260038111156103c3576103c2610af1565b5b036103fa576040517ff645eedf00000000000000000000000000000000000000000000000000000000815260040160405180910390fd5b6002600381111561040e5761040d610af1565b5b82600381111561042157610420610af1565b5b0361046557805f1c6040517ffce698f700000000000000000000000000000000000000000000000000000000815260040161045c9190610b1e565b60405180910390fd5b60038081111561047857610477610af1565b5b82600381111561048b5761048a610af1565b5b036104cd57806040517fd78bce0c0000000000000000000000000000000000000000000000000000000081526004016104c49190610b46565b60405180910390fd5b5b5050565b5f805f7f7fffffffffffffffffffffffffffffff5d576e7357a4501ddfe92f46681b20a0845f1c111561050e575f6003859250925092506105af565b5f6001888888886040515f81526020016040526040516105319493929190610b7a565b6020604051602081039080840390855afa158015610551573d5f803e3d5ffd5b5050506020604051035190505f73ffffffffffffffffffffffffffffffffffffffff168173ffffffffffffffffffffffffffffffffffffffff16036105a2575f60015f801b935093509350506105af565b805f805f1b935093509350505b9450945094915050565b5f80fd5b5f80fd5b5f73ffffffffffffffffffffffffffffffffffffffff82169050919050565b5f6105ea826105c1565b9050919050565b6105fa816105e0565b8114610604575f80fd5b50565b5f81359050610615816105f1565b92915050565b5f819050919050565b61062d8161061b565b8114610637575f80fd5b50565b5f8135905061064881610624565b92915050565b5f80fd5b5f80fd5b5f80fd5b5f8083601f84011261066f5761066e61064e565b5b8235905067ffffffffffffffff81111561068c5761068b610652565b5b6020830191508360018202830111156106a8576106a7610656565b5b9250929050565b5f805f805f805f60c0888a0312156106ca576106c96105b9565b5b5f6106d78a828b01610607565b97505060206106e88a828b01610607565b96505060406106f98a828b01610607565b955050606061070a8a828b0161063a565b945050608061071b8a828b0161063a565b93505060a088013567ffffffffffffffff81111561073c5761073b6105bd565b5b6107488a828b0161065a565b925092505092959891949750929550565b5f82825260208201905092915050565b7f45787069726564000000000000000000000000000000000000000000000000005f82015250565b5f61079d600783610759565b91506107a882610769565b602082019050919050565b5f6020820190508181035f8301526107ca81610791565b9050919050565b5f8160601b9050919050565b5f6107e7826107d1565b9050919050565b5f6107f8826107dd565b9050919050565b61081061080b826105e0565b6107ee565b82525050565b5f819050919050565b61083061082b8261061b565b610816565b82525050565b5f61084182896107ff565b60148201915061085182886107ff565b60148201915061086182876107ff565b601482019150610871828661081f565b602082019150610881828561081f565b60208201915061089182846107ff565b601482019150819050979650505050505050565b7f496e76616c6964207369676e61747572650000000000000000000000000000005f82015250565b5f6108d9601183610759565b91506108e4826108a5565b602082019050919050565b5f6020820190508181035f830152610906816108cd565b9050919050565b610916816105e0565b82525050565b6109258161061b565b82525050565b5f60608201905061093e5f83018661090d565b61094b602083018561090d565b610958604083018461091c565b949350505050565b5f8115159050919050565b61097481610960565b811461097e575f80fd5b50565b5f8151905061098f8161096b565b92915050565b5f602082840312156109aa576109a96105b9565b5b5f6109b784828501610981565b91505092915050565b7f5472616e73666572206661696c656400000000000000000000000000000000005f82015250565b5f6109f4600f83610759565b91506109ff826109c0565b602082019050919050565b5f6020820190508181035f830152610a21816109e8565b9050919050565b5f604082019050610a3b5f83018561090d565b610a48602083018461091c565b9392505050565b5f81905092915050565b7f19457468657265756d205369676e6564204d6573736167653a0a3332000000005f82015250565b5f610a8d601c83610a4f565b9150610a9882610a59565b601c82019050919050565b5f819050919050565b5f819050919050565b610ac6610ac182610aa3565b610aac565b82525050565b5f610ad682610a81565b9150610ae28284610ab5565b60208201915081905092915050565b7f4e487b71000000000000000000000000000000000000000000000000000000005f52602160045260245ffd5b5f602082019050610b315f83018461091c565b92915050565b610b4081610aa3565b82525050565b5f602082019050610b595f830184610b37565b92915050565b5f60ff82169050919050565b610b7481610b5f565b82525050565b5f608082019050610b8d5f830187610b37565b610b9a6020830186610b6b565b610ba76040830185610b37565b610bb46060830184610b37565b9594505050505056fea2646970667358221220e09d6e7df81c4ecc3d2f6b6f171ae6dac115b6f299d8405c977cc20e73b9a02d64736f6c63430008140033",
					"opcodes": "PUSH1 0x80 PUSH1 0x40 MSTORE CALLVALUE DUP1 ISZERO PUSH2 0xF JUMPI PUSH0 DUP1 REVERT JUMPDEST POP PUSH2 0xBF3 DUP1 PUSH2 0x1D PUSH0 CODECOPY PUSH0 RETURN INVALID PUSH1 0x80 PUSH1 0x40 MSTORE CALLVALUE DUP1 ISZERO PUSH2 0xF JUMPI PUSH0 DUP1 REVERT JUMPDEST POP PUSH1 0x4 CALLDATASIZE LT PUSH2 0x29 JUMPI PUSH0 CALLDATALOAD PUSH1 0xE0 SHR DUP1 PUSH4 0x8C2B3EF7 EQ PUSH2 0x2D JUMPI JUMPDEST PUSH0 DUP1 REVERT JUMPDEST PUSH2 0x47 PUSH1 0x4 DUP1 CALLDATASIZE SUB DUP2 ADD SWAP1 PUSH2 0x42 SWAP2 SWAP1 PUSH2 0x6AF JUMP JUMPDEST PUSH2 0x49 JUMP JUMPDEST STOP JUMPDEST DUP3 TIMESTAMP GT ISZERO PUSH2 0x8C JUMPI PUSH1 0x40 MLOAD PUSH32 0x8C379A000000000000000000000000000000000000000000000000000000000 DUP2 MSTORE PUSH1 0x4 ADD PUSH2 0x83 SWAP1 PUSH2 0x7B3 JUMP JUMPDEST PUSH1 0x40 MLOAD DUP1 SWAP2 SUB SWAP1 REVERT JUMPDEST PUSH0 DUP8 DUP8 DUP8 DUP8 DUP8 ADDRESS PUSH1 0x40 MLOAD PUSH1 0x20 ADD PUSH2 0xA8 SWAP7 SWAP6 SWAP5 SWAP4 SWAP3 SWAP2 SWAP1 PUSH2 0x836 JUMP JUMPDEST PUSH1 0x40 MLOAD PUSH1 0x20 DUP2 DUP4 SUB SUB DUP2 MSTORE SWAP1 PUSH1 0x40 MSTORE DUP1 MLOAD SWAP1 PUSH1 0x20 ADD KECCAK256 SWAP1 POP PUSH0 PUSH2 0xCA DUP3 PUSH2 0x2C2 JUMP JUMPDEST SWAP1 POP PUSH0 PUSH2 0x123 DUP6 DUP6 DUP1 DUP1 PUSH1 0x1F ADD PUSH1 0x20 DUP1 SWAP2 DIV MUL PUSH1 0x20 ADD PUSH1 0x40 MLOAD SWAP1 DUP2 ADD PUSH1 0x40 MSTORE DUP1 SWAP4 SWAP3 SWAP2 SWAP1 DUP2 DUP2 MSTORE PUSH1 0x20 ADD DUP4 DUP4 DUP1 DUP3 DUP5 CALLDATACOPY PUSH0 DUP2 DUP5 ADD MSTORE PUSH1 0x1F NOT PUSH1 0x1F DUP3 ADD AND SWAP1 POP DUP1 DUP4 ADD SWAP3 POP POP POP POP POP POP POP DUP4 PUSH2 0x2F1 SWAP1 SWAP2 SWAP1 PUSH4 0xFFFFFFFF AND JUMP JUMPDEST SWAP1 POP DUP10 PUSH20 0xFFFFFFFFFFFFFFFFFFFFFFFFFFFFFFFFFFFFFFFF AND DUP2 PUSH20 0xFFFFFFFFFFFFFFFFFFFFFFFFFFFFFFFFFFFFFFFF AND EQ PUSH2 0x193 JUMPI PUSH1 0x40 MLOAD PUSH32 0x8C379A000000000000000000000000000000000000000000000000000000000 DUP2 MSTORE PUSH1 0x4 ADD PUSH2 0x18A SWAP1 PUSH2 0x8EF JUMP JUMPDEST PUSH1 0x40 MLOAD DUP1 SWAP2 SUB SWAP1 REVERT JUMPDEST DUP8 PUSH20 0xFFFFFFFFFFFFFFFFFFFFFFFFFFFFFFFFFFFFFFFF AND PUSH4 0x23B872DD DUP12 DUP12 DUP11 PUSH1 0x40 MLOAD DUP5 PUSH4 0xFFFFFFFF AND PUSH1 0xE0 SHL DUP2 MSTORE PUSH1 0x4 ADD PUSH2 0x1D0 SWAP4 SWAP3 SWAP2 SWAP1 PUSH2 0x92B JUMP JUMPDEST PUSH1 0x20 PUSH1 0x40 MLOAD DUP1 DUP4 SUB DUP2 PUSH0 DUP8 GAS CALL ISZERO DUP1 ISZERO PUSH2 0x1EC JUMPI RETURNDATASIZE PUSH0 DUP1 RETURNDATACOPY RETURNDATASIZE PUSH0 REVERT JUMPDEST POP POP POP POP PUSH1 0x40 MLOAD RETURNDATASIZE PUSH1 0x1F NOT PUSH1 0x1F DUP3 ADD AND DUP3 ADD DUP1 PUSH1 0x40 MSTORE POP DUP2 ADD SWAP1 PUSH2 0x210 SWAP2 SWAP1 PUSH2 0x995 JUMP JUMPDEST PUSH2 0x24F JUMPI PUSH1 0x40 MLOAD PUSH32 0x8C379A000000000000000000000000000000000000000000000000000000000 DUP2 MSTORE PUSH1 0x4 ADD PUSH2 0x246 SWAP1 PUSH2 0xA0A JUMP JUMPDEST PUSH1 0x40 MLOAD DUP1 SWAP2 SUB SWAP1 REVERT JUMPDEST DUP9 PUSH20 0xFFFFFFFFFFFFFFFFFFFFFFFFFFFFFFFFFFFFFFFF AND DUP11 PUSH20 0xFFFFFFFFFFFFFFFFFFFFFFFFFFFFFFFFFFFFFFFF AND PUSH32 0x3115D1449A7B732C986CBA18244E897A450F61E1BB8D589CD2E69E6C8924F9F7 DUP11 DUP11 PUSH1 0x40 MLOAD PUSH2 0x2AE SWAP3 SWAP2 SWAP1 PUSH2 0xA28 JUMP JUMPDEST PUSH1 0x40 MLOAD DUP1 SWAP2 SUB SWAP1 LOG3 POP POP POP POP POP POP POP POP POP POP JUMP JUMPDEST PUSH0 DUP2 PUSH1 0x40 MLOAD PUSH1 0x20 ADD PUSH2 0x2D4 SWAP2 SWAP1 PUSH2 0xACC JUMP JUMPDEST PUSH1 0x40 MLOAD PUSH1 0x20 DUP2 DUP4 SUB SUB DUP2 MSTORE SWAP1 PUSH1 0x40 MSTORE DUP1 MLOAD SWAP1 PUSH1 0x20 ADD KECCAK256 SWAP1 POP SWAP2 SWAP1 POP JUMP JUMPDEST PUSH0 DUP1 PUSH0 DUP1 PUSH2 0x2FF DUP7 DUP7 PUSH2 0x31B JUMP JUMPDEST SWAP3 POP SWAP3 POP SWAP3 POP PUSH2 0x30F DUP3 DUP3 PUSH2 0x370 JUMP JUMPDEST DUP3 SWAP4 POP POP POP POP SWAP3 SWAP2 POP POP JUMP JUMPDEST PUSH0 DUP1 PUSH0 PUSH1 0x41 DUP5 MLOAD SUB PUSH2 0x35B JUMPI PUSH0 DUP1 PUSH0 PUSH1 0x20 DUP8 ADD MLOAD SWAP3 POP PUSH1 0x40 DUP8 ADD MLOAD SWAP2 POP PUSH1 0x60 DUP8 ADD MLOAD PUSH0 BYTE SWAP1 POP PUSH2 0x34D DUP9 DUP3 DUP6 DUP6 PUSH2 0x4D2 JUMP JUMPDEST SWAP6 POP SWAP6 POP SWAP6 POP POP POP POP PUSH2 0x369 JUMP JUMPDEST PUSH0 PUSH1 0x2 DUP6 MLOAD PUSH0 SHL SWAP3 POP SWAP3 POP SWAP3 POP JUMPDEST SWAP3 POP SWAP3 POP SWAP3 JUMP JUMPDEST PUSH0 PUSH1 0x3 DUP2 GT ISZERO PUSH2 0x383 JUMPI PUSH2 0x382 PUSH2 0xAF1 JUMP JUMPDEST JUMPDEST DUP3 PUSH1 0x3 DUP2 GT ISZERO PUSH2 0x396 JUMPI PUSH2 0x395 PUSH2 0xAF1 JUMP JUMPDEST JUMPDEST SUB ISZERO PUSH2 0x4CE JUMPI PUSH1 0x1 PUSH1 0x3 DUP2 GT ISZERO PUSH2 0x3B0 JUMPI PUSH2 0x3AF PUSH2 0xAF1 JUMP JUMPDEST JUMPDEST DUP3 PUSH1 0x3 DUP2 GT ISZERO PUSH2 0x3C3 JUMPI PUSH2 0x3C2 PUSH2 0xAF1 JUMP JUMPDEST JUMPDEST SUB PUSH2 0x3FA JUMPI PUSH1 0x40 MLOAD PUSH32 0xF645EEDF00000000000000000000000000000000000000000000000000000000 DUP2 MSTORE PUSH1 0x4 ADD PUSH1 0x40 MLOAD DUP1 SWAP2 SUB SWAP1 REVERT JUMPDEST PUSH1 0x2 PUSH1 0x3 DUP2 GT ISZERO PUSH2 0x40E JUMPI PUSH2 0x40D PUSH2 0xAF1 JUMP JUMPDEST JUMPDEST DUP3 PUSH1 0x3 DUP2 GT ISZERO PUSH2 0x421 JUMPI PUSH2 0x420 PUSH2 0xAF1 JUMP JUMPDEST JUMPDEST SUB PUSH2 0x465 JUMPI DUP1 PUSH0 SHR PUSH1 0x40 MLOAD PUSH32 0xFCE698F700000000000000000000000000000000000000000000000000000000 DUP2 MSTORE PUSH1 0x4 ADD PUSH2 0x45C SWAP2 SWAP1 PUSH2 0xB1E JUMP JUMPDEST PUSH1 0x40 MLOAD DUP1 SWAP2 SUB SWAP1 REVERT JUMPDEST PUSH1 0x3 DUP1 DUP2 GT ISZERO PUSH2 0x478 JUMPI PUSH2 0x477 PUSH2 0xAF1 JUMP JUMPDEST JUMPDEST DUP3 PUSH1 0x3 DUP2 GT ISZERO PUSH2 0x48B JUMPI PUSH2 0x48A PUSH2 0xAF1 JUMP JUMPDEST JUMPDEST SUB PUSH2 0x4CD JUMPI DUP1 PUSH1 0x40 MLOAD PUSH32 0xD78BCE0C00000000000000000000000000000000000000000000000000000000 DUP2 MSTORE PUSH1 0x4 ADD PUSH2 0x4C4 SWAP2 SWAP1 PUSH2 0xB46 JUMP JUMPDEST PUSH1 0x40 MLOAD DUP1 SWAP2 SUB SWAP1 REVERT JUMPDEST JUMPDEST POP POP JUMP JUMPDEST PUSH0 DUP1 PUSH0 PUSH32 0x7FFFFFFFFFFFFFFFFFFFFFFFFFFFFFFF5D576E7357A4501DDFE92F46681B20A0 DUP5 PUSH0 SHR GT ISZERO PUSH2 0x50E JUMPI PUSH0 PUSH1 0x3 DUP6 SWAP3 POP SWAP3 POP SWAP3 POP PUSH2 0x5AF JUMP JUMPDEST PUSH0 PUSH1 0x1 DUP9 DUP9 DUP9 DUP9 PUSH1 0x40 MLOAD PUSH0 DUP2 MSTORE PUSH1 0x20 ADD PUSH1 0x40 MSTORE PUSH1 0x40 MLOAD PUSH2 0x531 SWAP5 SWAP4 SWAP3 SWAP2 SWAP1 PUSH2 0xB7A JUMP JUMPDEST PUSH1 0x20 PUSH1 0x40 MLOAD PUSH1 0x20 DUP2 SUB SWAP1 DUP1 DUP5 SUB SWAP1 DUP6 GAS STATICCALL ISZERO DUP1 ISZERO PUSH2 0x551 JUMPI RETURNDATASIZE PUSH0 DUP1 RETURNDATACOPY RETURNDATASIZE PUSH0 REVERT JUMPDEST POP POP POP PUSH1 0x20 PUSH1 0x40 MLOAD SUB MLOAD SWAP1 POP PUSH0 PUSH20 0xFFFFFFFFFFFFFFFFFFFFFFFFFFFFFFFFFFFFFFFF AND DUP2 PUSH20 0xFFFFFFFFFFFFFFFFFFFFFFFFFFFFFFFFFFFFFFFF AND SUB PUSH2 0x5A2 JUMPI PUSH0 PUSH1 0x1 PUSH0 DUP1 SHL SWAP4 POP SWAP4 POP SWAP4 POP POP PUSH2 0x5AF JUMP JUMPDEST DUP1 PUSH0 DUP1 PUSH0 SHL SWAP4 POP SWAP4 POP SWAP4 POP POP JUMPDEST SWAP5 POP SWAP5 POP SWAP5 SWAP2 POP POP JUMP JUMPDEST PUSH0 DUP1 REVERT JUMPDEST PUSH0 DUP1 REVERT JUMPDEST PUSH0 PUSH20 0xFFFFFFFFFFFFFFFFFFFFFFFFFFFFFFFFFFFFFFFF DUP3 AND SWAP1 POP SWAP2 SWAP1 POP JUMP JUMPDEST PUSH0 PUSH2 0x5EA DUP3 PUSH2 0x5C1 JUMP JUMPDEST SWAP1 POP SWAP2 SWAP1 POP JUMP JUMPDEST PUSH2 0x5FA DUP2 PUSH2 0x5E0 JUMP JUMPDEST DUP2 EQ PUSH2 0x604 JUMPI PUSH0 DUP1 REVERT JUMPDEST POP JUMP JUMPDEST PUSH0 DUP2 CALLDATALOAD SWAP1 POP PUSH2 0x615 DUP2 PUSH2 0x5F1 JUMP JUMPDEST SWAP3 SWAP2 POP POP JUMP JUMPDEST PUSH0 DUP2 SWAP1 POP SWAP2 SWAP1 POP JUMP JUMPDEST PUSH2 0x62D DUP2 PUSH2 0x61B JUMP JUMPDEST DUP2 EQ PUSH2 0x637 JUMPI PUSH0 DUP1 REVERT JUMPDEST POP JUMP JUMPDEST PUSH0 DUP2 CALLDATALOAD SWAP1 POP PUSH2 0x648 DUP2 PUSH2 0x624 JUMP JUMPDEST SWAP3 SWAP2 POP POP JUMP JUMPDEST PUSH0 DUP1 REVERT JUMPDEST PUSH0 DUP1 REVERT JUMPDEST PUSH0 DUP1 REVERT JUMPDEST PUSH0 DUP1 DUP4 PUSH1 0x1F DUP5 ADD SLT PUSH2 0x66F JUMPI PUSH2 0x66E PUSH2 0x64E JUMP JUMPDEST JUMPDEST DUP3 CALLDATALOAD SWAP1 POP PUSH8 0xFFFFFFFFFFFFFFFF DUP2 GT ISZERO PUSH2 0x68C JUMPI PUSH2 0x68B PUSH2 0x652 JUMP JUMPDEST JUMPDEST PUSH1 0x20 DUP4 ADD SWAP2 POP DUP4 PUSH1 0x1 DUP3 MUL DUP4 ADD GT ISZERO PUSH2 0x6A8 JUMPI PUSH2 0x6A7 PUSH2 0x656 JUMP JUMPDEST JUMPDEST SWAP3 POP SWAP3 SWAP1 POP JUMP JUMPDEST PUSH0 DUP1 PUSH0 DUP1 PUSH0 DUP1 PUSH0 PUSH1 0xC0 DUP9 DUP11 SUB SLT ISZERO PUSH2 0x6CA JUMPI PUSH2 0x6C9 PUSH2 0x5B9 JUMP JUMPDEST JUMPDEST PUSH0 PUSH2 0x6D7 DUP11 DUP3 DUP12 ADD PUSH2 0x607 JUMP JUMPDEST SWAP8 POP POP PUSH1 0x20 PUSH2 0x6E8 DUP11 DUP3 DUP12 ADD PUSH2 0x607 JUMP JUMPDEST SWAP7 POP POP PUSH1 0x40 PUSH2 0x6F9 DUP11 DUP3 DUP12 ADD PUSH2 0x607 JUMP JUMPDEST SWAP6 POP POP PUSH1 0x60 PUSH2 0x70A DUP11 DUP3 DUP12 ADD PUSH2 0x63A JUMP JUMPDEST SWAP5 POP POP PUSH1 0x80 PUSH2 0x71B DUP11 DUP3 DUP12 ADD PUSH2 0x63A JUMP JUMPDEST SWAP4 POP POP PUSH1 0xA0 DUP9 ADD CALLDATALOAD PUSH8 0xFFFFFFFFFFFFFFFF DUP2 GT ISZERO PUSH2 0x73C JUMPI PUSH2 0x73B PUSH2 0x5BD JUMP JUMPDEST JUMPDEST PUSH2 0x748 DUP11 DUP3 DUP12 ADD PUSH2 0x65A JUMP JUMPDEST SWAP3 POP SWAP3 POP POP SWAP3 SWAP6 SWAP9 SWAP2 SWAP5 SWAP8 POP SWAP3 SWAP6 POP JUMP JUMPDEST PUSH0 DUP3 DUP3 MSTORE PUSH1 0x20 DUP3 ADD SWAP1 POP SWAP3 SWAP2 POP POP JUMP JUMPDEST PUSH32 0x4578706972656400000000000000000000000000000000000000000000000000 PUSH0 DUP3 ADD MSTORE POP JUMP JUMPDEST PUSH0 PUSH2 0x79D PUSH1 0x7 DUP4 PUSH2 0x759 JUMP JUMPDEST SWAP2 POP PUSH2 0x7A8 DUP3 PUSH2 0x769 JUMP JUMPDEST PUSH1 0x20 DUP3 ADD SWAP1 POP SWAP2 SWAP1 POP JUMP JUMPDEST PUSH0 PUSH1 0x20 DUP3 ADD SWAP1 POP DUP2 DUP2 SUB PUSH0 DUP4 ADD MSTORE PUSH2 0x7CA DUP2 PUSH2 0x791 JUMP JUMPDEST SWAP1 POP SWAP2 SWAP1 POP JUMP JUMPDEST PUSH0 DUP2 PUSH1 0x60 SHL SWAP1 POP SWAP2 SWAP1 POP JUMP JUMPDEST PUSH0 PUSH2 0x7E7 DUP3 PUSH2 0x7D1 JUMP JUMPDEST SWAP1 POP SWAP2 SWAP1 POP JUMP JUMPDEST PUSH0 PUSH2 0x7F8 DUP3 PUSH2 0x7DD JUMP JUMPDEST SWAP1 POP SWAP2 SWAP1 POP JUMP JUMPDEST PUSH2 0x810 PUSH2 0x80B DUP3 PUSH2 0x5E0 JUMP JUMPDEST PUSH2 0x7EE JUMP JUMPDEST DUP3 MSTORE POP POP JUMP JUMPDEST PUSH0 DUP2 SWAP1 POP SWAP2 SWAP1 POP JUMP JUMPDEST PUSH2 0x830 PUSH2 0x82B DUP3 PUSH2 0x61B JUMP JUMPDEST PUSH2 0x816 JUMP JUMPDEST DUP3 MSTORE POP POP JUMP JUMPDEST PUSH0 PUSH2 0x841 DUP3 DUP10 PUSH2 0x7FF JUMP JUMPDEST PUSH1 0x14 DUP3 ADD SWAP2 POP PUSH2 0x851 DUP3 DUP9 PUSH2 0x7FF JUMP JUMPDEST PUSH1 0x14 DUP3 ADD SWAP2 POP PUSH2 0x861 DUP3 DUP8 PUSH2 0x7FF JUMP JUMPDEST PUSH1 0x14 DUP3 ADD SWAP2 POP PUSH2 0x871 DUP3 DUP7 PUSH2 0x81F JUMP JUMPDEST PUSH1 0x20 DUP3 ADD SWAP2 POP PUSH2 0x881 DUP3 DUP6 PUSH2 0x81F JUMP JUMPDEST PUSH1 0x20 DUP3 ADD SWAP2 POP PUSH2 0x891 DUP3 DUP5 PUSH2 0x7FF JUMP JUMPDEST PUSH1 0x14 DUP3 ADD SWAP2 POP DUP2 SWAP1 POP SWAP8 SWAP7 POP POP POP POP POP POP POP JUMP JUMPDEST PUSH32 0x496E76616C6964207369676E6174757265000000000000000000000000000000 PUSH0 DUP3 ADD MSTORE POP JUMP JUMPDEST PUSH0 PUSH2 0x8D9 PUSH1 0x11 DUP4 PUSH2 0x759 JUMP JUMPDEST SWAP2 POP PUSH2 0x8E4 DUP3 PUSH2 0x8A5 JUMP JUMPDEST PUSH1 0x20 DUP3 ADD SWAP1 POP SWAP2 SWAP1 POP JUMP JUMPDEST PUSH0 PUSH1 0x20 DUP3 ADD SWAP1 POP DUP2 DUP2 SUB PUSH0 DUP4 ADD MSTORE PUSH2 0x906 DUP2 PUSH2 0x8CD JUMP JUMPDEST SWAP1 POP SWAP2 SWAP1 POP JUMP JUMPDEST PUSH2 0x916 DUP2 PUSH2 0x5E0 JUMP JUMPDEST DUP3 MSTORE POP POP JUMP JUMPDEST PUSH2 0x925 DUP2 PUSH2 0x61B JUMP JUMPDEST DUP3 MSTORE POP POP JUMP JUMPDEST PUSH0 PUSH1 0x60 DUP3 ADD SWAP1 POP PUSH2 0x93E PUSH0 DUP4 ADD DUP7 PUSH2 0x90D JUMP JUMPDEST PUSH2 0x94B PUSH1 0x20 DUP4 ADD DUP6 PUSH2 0x90D JUMP JUMPDEST PUSH2 0x958 PUSH1 0x40 DUP4 ADD DUP5 PUSH2 0x91C JUMP JUMPDEST SWAP5 SWAP4 POP POP POP POP JUMP JUMPDEST PUSH0 DUP2 ISZERO ISZERO SWAP1 POP SWAP2 SWAP1 POP JUMP JUMPDEST PUSH2 0x974 DUP2 PUSH2 0x960 JUMP JUMPDEST DUP2 EQ PUSH2 0x97E JUMPI PUSH0 DUP1 REVERT JUMPDEST POP JUMP JUMPDEST PUSH0 DUP2 MLOAD SWAP1 POP PUSH2 0x98F DUP2 PUSH2 0x96B JUMP JUMPDEST SWAP3 SWAP2 POP POP JUMP JUMPDEST PUSH0 PUSH1 0x20 DUP3 DUP5 SUB SLT ISZERO PUSH2 0x9AA JUMPI PUSH2 0x9A9 PUSH2 0x5B9 JUMP JUMPDEST JUMPDEST PUSH0 PUSH2 0x9B7 DUP5 DUP3 DUP6 ADD PUSH2 0x981 JUMP JUMPDEST SWAP2 POP POP SWAP3 SWAP2 POP POP JUMP JUMPDEST PUSH32 0x5472616E73666572206661696C65640000000000000000000000000000000000 PUSH0 DUP3 ADD MSTORE POP JUMP JUMPDEST PUSH0 PUSH2 0x9F4 PUSH1 0xF DUP4 PUSH2 0x759 JUMP JUMPDEST SWAP2 POP PUSH2 0x9FF DUP3 PUSH2 0x9C0 JUMP JUMPDEST PUSH1 0x20 DUP3 ADD SWAP1 POP SWAP2 SWAP1 POP JUMP JUMPDEST PUSH0 PUSH1 0x20 DUP3 ADD SWAP1 POP DUP2 DUP2 SUB PUSH0 DUP4 ADD MSTORE PUSH2 0xA21 DUP2 PUSH2 0x9E8 JUMP JUMPDEST SWAP1 POP SWAP2 SWAP1 POP JUMP JUMPDEST PUSH0 PUSH1 0x40 DUP3 ADD SWAP1 POP PUSH2 0xA3B PUSH0 DUP4 ADD DUP6 PUSH2 0x90D JUMP JUMPDEST PUSH2 0xA48 PUSH1 0x20 DUP4 ADD DUP5 PUSH2 0x91C JUMP JUMPDEST SWAP4 SWAP3 POP POP POP JUMP JUMPDEST PUSH0 DUP2 SWAP1 POP SWAP3 SWAP2 POP POP JUMP JUMPDEST PUSH32 0x19457468657265756D205369676E6564204D6573736167653A0A333200000000 PUSH0 DUP3 ADD MSTORE POP JUMP JUMPDEST PUSH0 PUSH2 0xA8D PUSH1 0x1C DUP4 PUSH2 0xA4F JUMP JUMPDEST SWAP2 POP PUSH2 0xA98 DUP3 PUSH2 0xA59 JUMP JUMPDEST PUSH1 0x1C DUP3 ADD SWAP1 POP SWAP2 SWAP1 POP JUMP JUMPDEST PUSH0 DUP2 SWAP1 POP SWAP2 SWAP1 POP JUMP JUMPDEST PUSH0 DUP2 SWAP1 POP SWAP2 SWAP1 POP JUMP JUMPDEST PUSH2 0xAC6 PUSH2 0xAC1 DUP3 PUSH2 0xAA3 JUMP JUMPDEST PUSH2 0xAAC JUMP JUMPDEST DUP3 MSTORE POP POP JUMP JUMPDEST PUSH0 PUSH2 0xAD6 DUP3 PUSH2 0xA81 JUMP JUMPDEST SWAP2 POP PUSH2 0xAE2 DUP3 DUP5 PUSH2 0xAB5 JUMP JUMPDEST PUSH1 0x20 DUP3 ADD SWAP2 POP DUP2 SWAP1 POP SWAP3 SWAP2 POP POP JUMP JUMPDEST PUSH32 0x4E487B7100000000000000000000000000000000000000000000000000000000 PUSH0 MSTORE PUSH1 0x21 PUSH1 0x4 MSTORE PUSH1 0x24 PUSH0 REVERT JUMPDEST PUSH0 PUSH1 0x20 DUP3 ADD SWAP1 POP PUSH2 0xB31 PUSH0 DUP4 ADD DUP5 PUSH2 0x91C JUMP JUMPDEST SWAP3 SWAP2 POP POP JUMP JUMPDEST PUSH2 0xB40 DUP2 PUSH2 0xAA3 JUMP JUMPDEST DUP3 MSTORE POP POP JUMP JUMPDEST PUSH0 PUSH1 0x20 DUP3 ADD SWAP1 POP PUSH2 0xB59 PUSH0 DUP4 ADD DUP5 PUSH2 0xB37 JUMP JUMPDEST SWAP3 SWAP2 POP POP JUMP JUMPDEST PUSH0 PUSH1 0xFF DUP3 AND SWAP1 POP SWAP2 SWAP1 POP JUMP JUMPDEST PUSH2 0xB74 DUP2 PUSH2 0xB5F JUMP JUMPDEST DUP3 MSTORE POP POP JUMP JUMPDEST PUSH0 PUSH1 0x80 DUP3 ADD SWAP1 POP PUSH2 0xB8D PUSH0 DUP4 ADD DUP8 PUSH2 0xB37 JUMP JUMPDEST PUSH2 0xB9A PUSH1 0x20 DUP4 ADD DUP7 PUSH2 0xB6B JUMP JUMPDEST PUSH2 0xBA7 PUSH1 0x40 DUP4 ADD DUP6 PUSH2 0xB37 JUMP JUMPDEST PUSH2 0xBB4 PUSH1 0x60 DUP4 ADD DUP5 PUSH2 0xB37 JUMP JUMPDEST SWAP6 SWAP5 POP POP POP POP POP JUMP INVALID LOG2 PUSH5 0x6970667358 0x22 SLT KECCAK256 0xE0 SWAP14 PUSH15 0x7DF81C4ECC3D2F6B6F171AE6DAC115 0xB6 CALLCODE SWAP10 0xD8 BLOCKHASH 0x5C SWAP8 PUSH29 0xC20E73B9A02D64736F6C63430008140033000000000000000000000000 "
				},
				"gasEstimates": {
					"creation": {
						"codeDepositCost": "611800",
						"executionCost": "643",
						"totalCost": "612443"
					},
					"external": {
						"withdraw(address,address,address,uint256,uint256,bytes)": "infinite"
					},
					"internal": {
						"toEthSignedMessageHash(bytes32)": "infinite"
					}
				},
				"methodIdentifiers": {
					"withdraw(address,address,address,uint256,uint256,bytes)": "8c2b3ef7"
				}
			},
			"storageLayout": {
				"storage": [],
				"types": null
			},
			"userdoc": {
				"kind": "user",
				"methods": {},
				"version": 1
			}
		}
	}
}